{
    "_format": "hh-sol-artifact-1",
    "contractName": "ETHGlobalTokyoSBT",
    "sourceName": "contracts/LabEventSBT.sol",
    "abi": [
        {
            "inputs": [],
            "stateMutability": "nonpayable",
            "type": "constructor"
        },
        {
            "anonymous": false,
            "inputs": [
                {
                    "indexed": true,
                    "internalType": "address",
                    "name": "account",
                    "type": "address"
                },
                {
                    "indexed": true,
                    "internalType": "address",
                    "name": "operator",
                    "type": "address"
                },
                {
                    "indexed": false,
                    "internalType": "bool",
                    "name": "approved",
                    "type": "bool"
                }
            ],
            "name": "ApprovalForAll",
            "type": "event"
        },
        {
            "anonymous": false,
            "inputs": [
                {
                    "indexed": false,
                    "internalType": "address",
                    "name": "account",
                    "type": "address"
                }
            ],
            "name": "Paused",
            "type": "event"
        },
        {
            "anonymous": false,
            "inputs": [
                {
                    "indexed": true,
                    "internalType": "bytes32",
                    "name": "role",
                    "type": "bytes32"
                },
                {
                    "indexed": true,
                    "internalType": "bytes32",
                    "name": "previousAdminRole",
                    "type": "bytes32"
                },
                {
                    "indexed": true,
                    "internalType": "bytes32",
                    "name": "newAdminRole",
                    "type": "bytes32"
                }
            ],
            "name": "RoleAdminChanged",
            "type": "event"
        },
        {
            "anonymous": false,
            "inputs": [
                {
                    "indexed": true,
                    "internalType": "bytes32",
                    "name": "role",
                    "type": "bytes32"
                },
                {
                    "indexed": true,
                    "internalType": "address",
                    "name": "account",
                    "type": "address"
                },
                {
                    "indexed": true,
                    "internalType": "address",
                    "name": "sender",
                    "type": "address"
                }
            ],
            "name": "RoleGranted",
            "type": "event"
        },
        {
            "anonymous": false,
            "inputs": [
                {
                    "indexed": true,
                    "internalType": "bytes32",
                    "name": "role",
                    "type": "bytes32"
                },
                {
                    "indexed": true,
                    "internalType": "address",
                    "name": "account",
                    "type": "address"
                },
                {
                    "indexed": true,
                    "internalType": "address",
                    "name": "sender",
                    "type": "address"
                }
            ],
            "name": "RoleRevoked",
            "type": "event"
        },
        {
            "anonymous": false,
            "inputs": [
                {
                    "indexed": true,
                    "internalType": "address",
                    "name": "operator",
                    "type": "address"
                },
                {
                    "indexed": true,
                    "internalType": "address",
                    "name": "from",
                    "type": "address"
                },
                {
                    "indexed": true,
                    "internalType": "address",
                    "name": "to",
                    "type": "address"
                },
                {
                    "indexed": false,
                    "internalType": "uint256[]",
                    "name": "ids",
                    "type": "uint256[]"
                },
                {
                    "indexed": false,
                    "internalType": "uint256[]",
                    "name": "values",
                    "type": "uint256[]"
                }
            ],
            "name": "TransferBatch",
            "type": "event"
        },
        {
            "anonymous": false,
            "inputs": [
                {
                    "indexed": true,
                    "internalType": "address",
                    "name": "operator",
                    "type": "address"
                },
                {
                    "indexed": true,
                    "internalType": "address",
                    "name": "from",
                    "type": "address"
                },
                {
                    "indexed": true,
                    "internalType": "address",
                    "name": "to",
                    "type": "address"
                },
                {
                    "indexed": false,
                    "internalType": "uint256",
                    "name": "id",
                    "type": "uint256"
                },
                {
                    "indexed": false,
                    "internalType": "uint256",
                    "name": "value",
                    "type": "uint256"
                }
            ],
            "name": "TransferSingle",
            "type": "event"
        },
        {
            "anonymous": false,
            "inputs": [
                {
                    "indexed": false,
                    "internalType": "string",
                    "name": "value",
                    "type": "string"
                },
                {
                    "indexed": true,
                    "internalType": "uint256",
                    "name": "id",
                    "type": "uint256"
                }
            ],
            "name": "URI",
            "type": "event"
        },
        {
            "anonymous": false,
            "inputs": [
                {
                    "indexed": false,
                    "internalType": "address",
                    "name": "account",
                    "type": "address"
                }
            ],
            "name": "Unpaused",
            "type": "event"
        },
        {
            "inputs": [],
            "name": "DEFAULT_ADMIN_ROLE",
            "outputs": [
                {
                    "internalType": "bytes32",
                    "name": "",
                    "type": "bytes32"
                }
            ],
            "stateMutability": "view",
            "type": "function"
        },
        {
            "inputs": [],
            "name": "MINTER_ROLE",
            "outputs": [
                {
                    "internalType": "bytes32",
                    "name": "",
                    "type": "bytes32"
                }
            ],
            "stateMutability": "view",
            "type": "function"
        },
        {
            "inputs": [],
            "name": "PAUSER_ROLE",
            "outputs": [
                {
                    "internalType": "bytes32",
                    "name": "",
                    "type": "bytes32"
                }
            ],
            "stateMutability": "view",
            "type": "function"
        },
        {
            "inputs": [],
            "name": "URI_SETTER_ROLE",
            "outputs": [
                {
                    "internalType": "bytes32",
                    "name": "",
                    "type": "bytes32"
                }
            ],
            "stateMutability": "view",
            "type": "function"
        },
        {
            "inputs": [
                {
                    "internalType": "address[]",
                    "name": "recievers",
                    "type": "address[]"
                },
                {
                    "internalType": "uint256",
                    "name": "id",
                    "type": "uint256"
                }
            ],
            "name": "airDrop",
            "outputs": [],
            "stateMutability": "nonpayable",
            "type": "function"
        },
        {
            "inputs": [
                {
                    "internalType": "address",
                    "name": "account",
                    "type": "address"
                },
                {
                    "internalType": "uint256",
                    "name": "id",
                    "type": "uint256"
                }
            ],
            "name": "balanceOf",
            "outputs": [
                {
                    "internalType": "uint256",
                    "name": "",
                    "type": "uint256"
                }
            ],
            "stateMutability": "view",
            "type": "function"
        },
        {
            "inputs": [
                {
                    "internalType": "address[]",
                    "name": "accounts",
                    "type": "address[]"
                },
                {
                    "internalType": "uint256[]",
                    "name": "ids",
                    "type": "uint256[]"
                }
            ],
            "name": "balanceOfBatch",
            "outputs": [
                {
                    "internalType": "uint256[]",
                    "name": "",
                    "type": "uint256[]"
                }
            ],
            "stateMutability": "view",
            "type": "function"
        },
        {
            "inputs": [
                {
                    "internalType": "address",
                    "name": "account",
                    "type": "address"
                },
                {
                    "internalType": "uint256",
                    "name": "id",
                    "type": "uint256"
                },
                {
                    "internalType": "uint256",
                    "name": "value",
                    "type": "uint256"
                }
            ],
            "name": "burn",
            "outputs": [],
            "stateMutability": "nonpayable",
            "type": "function"
        },
        {
            "inputs": [
                {
                    "internalType": "address",
                    "name": "account",
                    "type": "address"
                },
                {
                    "internalType": "uint256[]",
                    "name": "ids",
                    "type": "uint256[]"
                },
                {
                    "internalType": "uint256[]",
                    "name": "values",
                    "type": "uint256[]"
                }
            ],
            "name": "burnBatch",
            "outputs": [],
            "stateMutability": "nonpayable",
            "type": "function"
        },
        {
            "inputs": [
                {
                    "internalType": "bytes32",
                    "name": "role",
                    "type": "bytes32"
                }
            ],
            "name": "getRoleAdmin",
            "outputs": [
                {
                    "internalType": "bytes32",
                    "name": "",
                    "type": "bytes32"
                }
            ],
            "stateMutability": "view",
            "type": "function"
        },
        {
            "inputs": [
                {
                    "internalType": "bytes32",
                    "name": "role",
                    "type": "bytes32"
                },
                {
                    "internalType": "address",
                    "name": "account",
                    "type": "address"
                }
            ],
            "name": "grantRole",
            "outputs": [],
            "stateMutability": "nonpayable",
            "type": "function"
        },
        {
            "inputs": [
                {
                    "internalType": "bytes32",
                    "name": "role",
                    "type": "bytes32"
                },
                {
                    "internalType": "address",
                    "name": "account",
                    "type": "address"
                }
            ],
            "name": "hasRole",
            "outputs": [
                {
                    "internalType": "bool",
                    "name": "",
                    "type": "bool"
                }
            ],
            "stateMutability": "view",
            "type": "function"
        },
        {
            "inputs": [
                {
                    "internalType": "address",
                    "name": "account",
                    "type": "address"
                },
                {
                    "internalType": "address",
                    "name": "operator",
                    "type": "address"
                }
            ],
            "name": "isApprovedForAll",
            "outputs": [
                {
                    "internalType": "bool",
                    "name": "",
                    "type": "bool"
                }
            ],
            "stateMutability": "view",
            "type": "function"
        },
        {
            "inputs": [
                {
                    "internalType": "address",
                    "name": "account",
                    "type": "address"
                },
                {
                    "internalType": "uint256",
                    "name": "id",
                    "type": "uint256"
                },
                {
                    "internalType": "uint256",
                    "name": "amount",
                    "type": "uint256"
                },
                {
                    "internalType": "bytes",
                    "name": "data",
                    "type": "bytes"
                }
            ],
            "name": "mint",
            "outputs": [],
            "stateMutability": "nonpayable",
            "type": "function"
        },
        {
            "inputs": [
                {
                    "internalType": "address",
                    "name": "to",
                    "type": "address"
                },
                {
                    "internalType": "uint256[]",
                    "name": "ids",
                    "type": "uint256[]"
                },
                {
                    "internalType": "uint256[]",
                    "name": "amounts",
                    "type": "uint256[]"
                },
                {
                    "internalType": "bytes",
                    "name": "data",
                    "type": "bytes"
                }
            ],
            "name": "mintBatch",
            "outputs": [],
            "stateMutability": "nonpayable",
            "type": "function"
        },
        {
            "inputs": [],
            "name": "name",
            "outputs": [
                {
                    "internalType": "string",
                    "name": "",
                    "type": "string"
                }
            ],
            "stateMutability": "view",
            "type": "function"
        },
        {
            "inputs": [],
            "name": "pause",
            "outputs": [],
            "stateMutability": "nonpayable",
            "type": "function"
        },
        {
            "inputs": [],
            "name": "paused",
            "outputs": [
                {
                    "internalType": "bool",
                    "name": "",
                    "type": "bool"
                }
            ],
            "stateMutability": "view",
            "type": "function"
        },
        {
            "inputs": [
                {
                    "internalType": "bytes32",
                    "name": "role",
                    "type": "bytes32"
                },
                {
                    "internalType": "address",
                    "name": "account",
                    "type": "address"
                }
            ],
            "name": "renounceRole",
            "outputs": [],
            "stateMutability": "nonpayable",
            "type": "function"
        },
        {
            "inputs": [
                {
                    "internalType": "bytes32",
                    "name": "role",
                    "type": "bytes32"
                },
                {
                    "internalType": "address",
                    "name": "account",
                    "type": "address"
                }
            ],
            "name": "revokeRole",
            "outputs": [],
            "stateMutability": "nonpayable",
            "type": "function"
        },
        {
            "inputs": [
                {
                    "internalType": "address",
                    "name": "from",
                    "type": "address"
                },
                {
                    "internalType": "address",
                    "name": "to",
                    "type": "address"
                },
                {
                    "internalType": "uint256[]",
                    "name": "ids",
                    "type": "uint256[]"
                },
                {
                    "internalType": "uint256[]",
                    "name": "amounts",
                    "type": "uint256[]"
                },
                {
                    "internalType": "bytes",
                    "name": "data",
                    "type": "bytes"
                }
            ],
            "name": "safeBatchTransferFrom",
            "outputs": [],
            "stateMutability": "nonpayable",
            "type": "function"
        },
        {
            "inputs": [
                {
                    "internalType": "address",
                    "name": "from",
                    "type": "address"
                },
                {
                    "internalType": "address",
                    "name": "to",
                    "type": "address"
                },
                {
                    "internalType": "uint256",
                    "name": "id",
                    "type": "uint256"
                },
                {
                    "internalType": "uint256",
                    "name": "amount",
                    "type": "uint256"
                },
                {
                    "internalType": "bytes",
                    "name": "data",
                    "type": "bytes"
                }
            ],
            "name": "safeTransferFrom",
            "outputs": [],
            "stateMutability": "nonpayable",
            "type": "function"
        },
        {
            "inputs": [
                {
                    "internalType": "address",
                    "name": "",
                    "type": "address"
                },
                {
                    "internalType": "bool",
                    "name": "",
                    "type": "bool"
                }
            ],
            "name": "setApprovalForAll",
            "outputs": [],
            "stateMutability": "nonpayable",
            "type": "function"
        },
        {
            "inputs": [
                {
                    "internalType": "string",
                    "name": "newname",
                    "type": "string"
                }
            ],
            "name": "setName",
            "outputs": [],
            "stateMutability": "nonpayable",
            "type": "function"
        },
        {
            "inputs": [
                {
                    "internalType": "string",
                    "name": "newsymbol",
                    "type": "string"
                }
            ],
            "name": "setSymbol",
            "outputs": [],
            "stateMutability": "nonpayable",
            "type": "function"
        },
        {
            "inputs": [
                {
                    "internalType": "string",
                    "name": "newuri",
                    "type": "string"
                }
            ],
            "name": "setURI",
            "outputs": [],
            "stateMutability": "nonpayable",
            "type": "function"
        },
        {
            "inputs": [
                {
                    "internalType": "bytes4",
                    "name": "interfaceId",
                    "type": "bytes4"
                }
            ],
            "name": "supportsInterface",
            "outputs": [
                {
                    "internalType": "bool",
                    "name": "",
                    "type": "bool"
                }
            ],
            "stateMutability": "view",
            "type": "function"
        },
        {
            "inputs": [],
            "name": "symbol",
            "outputs": [
                {
                    "internalType": "string",
                    "name": "",
                    "type": "string"
                }
            ],
            "stateMutability": "view",
            "type": "function"
        },
        {
            "inputs": [],
            "name": "unpause",
            "outputs": [],
            "stateMutability": "nonpayable",
            "type": "function"
        },
        {
            "inputs": [
                {
                    "internalType": "uint256",
                    "name": "",
                    "type": "uint256"
                }
            ],
            "name": "uri",
            "outputs": [
                {
                    "internalType": "string",
                    "name": "",
                    "type": "string"
                }
            ],
            "stateMutability": "view",
            "type": "function"
        }
    ],
    "bytecode": "0x60806040523480156200001157600080fd5b506040805160208101909152600081526200002c81620000ce565b506004805460ff1916905562000044600033620000e0565b620000707f7804d923f43a17d325d77e781528e0793b2edd9890ab45fc64efd7b4b427744c33620000e0565b6200009c7f65d7a28e3265b37a6474929f336521b332c1681b933f6cb9f3376673440d862a33620000e0565b620000c87f9f2df0fed2c77648de5860a4cc508cd0818c85b8b8a1ab4ceeef8d981c8956a633620000e0565b620002f5565b6002620000dc828262000229565b5050565b60008281526003602090815260408083206001600160a01b038516845290915290205460ff16620000dc5760008281526003602090815260408083206001600160a01b03851684529091529020805460ff19166001179055620001403390565b6001600160a01b0316816001600160a01b0316837f2f8788117e7eff1d82e926ec794901d17c78024a50270940304540a733656f0d60405160405180910390a45050565b634e487b7160e01b600052604160045260246000fd5b600181811c90821680620001af57607f821691505b602082108103620001d057634e487b7160e01b600052602260045260246000fd5b50919050565b601f8211156200022457600081815260208120601f850160051c81016020861015620001ff5750805b601f850160051c820191505b8181101562000220578281556001016200020b565b5050505b505050565b81516001600160401b0381111562000245576200024562000184565b6200025d816200025684546200019a565b84620001d6565b602080601f8311600181146200029557600084156200027c5750858301515b600019600386901b1c1916600185901b17855562000220565b600085815260208120601f198616915b82811015620002c657888601518255948401946001909101908401620002a5565b5085821015620002e55787850151600019600388901b60f8161c191681555b5050505050600190811b01905550565b612bf280620003056000396000f3fe608060405234801561001057600080fd5b50600436106101d95760003560e01c80637f34571011610104578063c47f0027116100a2578063e985e9c511610071578063e985e9c51461043e578063f242432a1461047a578063f5298aca1461048d578063fd1fc4a0146104a057600080fd5b8063c47f0027146103ca578063d5391393146103dd578063d547741f14610404578063e63ab1e91461041757600080fd5b806395d89b41116100de57806395d89b4114610394578063a217fddf1461039c578063a22cb465146103a4578063b84c8246146103b757600080fd5b80637f3457101461032c5780638456cb591461035357806391d148541461035b57600080fd5b80632eb2c2d61161017c5780634e1273f41161014b5780634e1273f4146102db5780635c975abb146102fb5780636b20c45414610306578063731133e91461031957600080fd5b80632eb2c2d61461029a5780632f2ff15d146102ad57806336568abe146102c05780633f4ba83a146102d357600080fd5b806306fdde03116101b857806306fdde031461023c5780630e89341c146102515780631f7fdffa14610264578063248a9ca31461027757600080fd5b8062fdd58e146101de57806301ffc9a71461020457806302fe530514610227575b600080fd5b6101f16101ec3660046120c9565b6104b3565b6040519081526020015b60405180910390f35b610217610212366004612109565b61054c565b60405190151581526020016101fb565b61023a6102353660046121c7565b610557565b005b61024461058e565b6040516101fb9190612268565b61024461025f36600461227b565b61061c565b61023a610272366004612349565b6106b0565b6101f161028536600461227b565b60009081526003602052604090206001015490565b61023a6102a83660046123e2565b6106ed565b61023a6102bb36600461248c565b61077a565b61023a6102ce36600461248c565b6107a4565b61023a61082c565b6102ee6102e9366004612525565b610861565b6040516101fb91906125c4565b60045460ff16610217565b61023a6103143660046125d7565b61098b565b61023a61032736600461264b565b610a16565b6101f17f7804d923f43a17d325d77e781528e0793b2edd9890ab45fc64efd7b4b427744c81565b61023a610a4c565b61021761036936600461248c565b60009182526003602090815260408084206001600160a01b0393909316845291905290205460ff1690565b610244610a7e565b6101f1600081565b61023a6103b23660046126a0565b610a8b565b61023a6103c53660046121c7565b610ae7565b61023a6103d83660046121c7565b610b1d565b6101f17f9f2df0fed2c77648de5860a4cc508cd0818c85b8b8a1ab4ceeef8d981c8956a681565b61023a61041236600461248c565b610b53565b6101f17f65d7a28e3265b37a6474929f336521b332c1681b933f6cb9f3376673440d862a81565b61021761044c3660046126dc565b6001600160a01b03918216600090815260016020908152604080832093909416825291909152205460ff1690565b61023a610488366004612706565b610b78565b61023a61049b36600461276b565b610c05565b61023a6104ae36600461279e565b610c90565b60006001600160a01b0383166105235760405162461bcd60e51b815260206004820152602a60248201527f455243313135353a2061646472657373207a65726f206973206e6f742061207660448201526930b634b21037bbb732b960b11b60648201526084015b60405180910390fd5b506000818152602081815260408083206001600160a01b03861684529091529020545b92915050565b600061054682610d1e565b7f7804d923f43a17d325d77e781528e0793b2edd9890ab45fc64efd7b4b427744c61058181610d43565b61058a82610d4d565b5050565b6005805461059b906127e3565b80601f01602080910402602001604051908101604052809291908181526020018280546105c7906127e3565b80156106145780601f106105e957610100808354040283529160200191610614565b820191906000526020600020905b8154815290600101906020018083116105f757829003601f168201915b505050505081565b60606002805461062b906127e3565b80601f0160208091040260200160405190810160405280929190818152602001828054610657906127e3565b80156106a45780601f10610679576101008083540402835291602001916106a4565b820191906000526020600020905b81548152906001019060200180831161068757829003601f168201915b50505050509050919050565b7f9f2df0fed2c77648de5860a4cc508cd0818c85b8b8a1ab4ceeef8d981c8956a66106da81610d43565b6106e685858585610d59565b5050505050565b6001600160a01b0385163314806107095750610709853361044c565b61076d5760405162461bcd60e51b815260206004820152602f60248201527f455243313135353a2063616c6c6572206973206e6f7420746f6b656e206f776e60448201526e195c881b9bdc88185c1c1c9bdd9959608a1b606482015260840161051a565b6106e68585858585610f2e565b60008281526003602052604090206001015461079581610d43565b61079f838361119a565b505050565b6001600160a01b03811633146108225760405162461bcd60e51b815260206004820152602f60248201527f416363657373436f6e74726f6c3a2063616e206f6e6c792072656e6f756e636560448201527f20726f6c657320666f722073656c660000000000000000000000000000000000606482015260840161051a565b61058a828261123c565b7f65d7a28e3265b37a6474929f336521b332c1681b933f6cb9f3376673440d862a61085681610d43565b61085e6112bf565b50565b606081518351146108c65760405162461bcd60e51b815260206004820152602960248201527f455243313135353a206163636f756e747320616e6420696473206c656e677468604482015268040dad2e6dac2e8c6d60bb1b606482015260840161051a565b6000835167ffffffffffffffff8111156108e2576108e2612126565b60405190808252806020026020018201604052801561090b578160200160208202803683370190505b50905060005b84518110156109835761095685828151811061092f5761092f61281d565b60200260200101518583815181106109495761094961281d565b60200260200101516104b3565b8282815181106109685761096861281d565b602090810291909101015261097c81612849565b9050610911565b509392505050565b6001600160a01b0383163314806109a757506109a7833361044c565b610a0b5760405162461bcd60e51b815260206004820152602f60248201527f455243313135353a2063616c6c6572206973206e6f7420746f6b656e206f776e60448201526e195c881b9bdc88185c1c1c9bdd9959608a1b606482015260840161051a565b61079f838383611311565b7f9f2df0fed2c77648de5860a4cc508cd0818c85b8b8a1ab4ceeef8d981c8956a6610a4081610d43565b6106e685858585611566565b7f65d7a28e3265b37a6474929f336521b332c1681b933f6cb9f3376673440d862a610a7681610d43565b61085e611689565b6006805461059b906127e3565b60405162461bcd60e51b815260206004820152602b60248201527f5468697320746f6b656e206973205342542c20736f20746869732063616e206e60448201526a37ba1030b8383937bb329760a91b606482015260840161051a565b7f7804d923f43a17d325d77e781528e0793b2edd9890ab45fc64efd7b4b427744c610b1181610d43565b600661079f83826128a8565b7f7804d923f43a17d325d77e781528e0793b2edd9890ab45fc64efd7b4b427744c610b4781610d43565b600561079f83826128a8565b600082815260036020526040902060010154610b6e81610d43565b61079f838361123c565b6001600160a01b038516331480610b945750610b94853361044c565b610bf85760405162461bcd60e51b815260206004820152602f60248201527f455243313135353a2063616c6c6572206973206e6f7420746f6b656e206f776e60448201526e195c881b9bdc88185c1c1c9bdd9959608a1b606482015260840161051a565b6106e685858585856116c6565b6001600160a01b038316331480610c215750610c21833361044c565b610c855760405162461bcd60e51b815260206004820152602f60248201527f455243313135353a2063616c6c6572206973206e6f7420746f6b656e206f776e60448201526e195c881b9bdc88185c1c1c9bdd9959608a1b606482015260840161051a565b61079f83838361187f565b7f9f2df0fed2c77648de5860a4cc508cd0818c85b8b8a1ab4ceeef8d981c8956a6610cba81610d43565b60005b8351811015610d1857610d06848281518110610cdb57610cdb61281d565b602002602001015184600160405180604001604052806002815260200161060f60f31b815250610a16565b80610d1081612849565b915050610cbd565b50505050565b60006001600160e01b03198216637965db0b60e01b1480610546575061054682611a0f565b61085e8133611a5f565b600261058a82826128a8565b6001600160a01b038416610db95760405162461bcd60e51b815260206004820152602160248201527f455243313135353a206d696e7420746f20746865207a65726f206164647265736044820152607360f81b606482015260840161051a565b8151835114610e1b5760405162461bcd60e51b815260206004820152602860248201527f455243313135353a2069647320616e6420616d6f756e7473206c656e677468206044820152670dad2e6dac2e8c6d60c31b606482015260840161051a565b33610e2b81600087878787611adf565b60005b8451811015610ec657838181518110610e4957610e4961281d565b6020026020010151600080878481518110610e6657610e6661281d565b602002602001015181526020019081526020016000206000886001600160a01b03166001600160a01b031681526020019081526020016000206000828254610eae9190612968565b90915550819050610ebe81612849565b915050610e2e565b50846001600160a01b031660006001600160a01b0316826001600160a01b03167f4a39dc06d4c0dbc64b70af90fd698a233a518aa5d07e595d983b8c0526c8f7fb8787604051610f1792919061297b565b60405180910390a46106e681600087878787611b6a565b8151835114610f905760405162461bcd60e51b815260206004820152602860248201527f455243313135353a2069647320616e6420616d6f756e7473206c656e677468206044820152670dad2e6dac2e8c6d60c31b606482015260840161051a565b6001600160a01b038416610ff45760405162461bcd60e51b815260206004820152602560248201527f455243313135353a207472616e7366657220746f20746865207a65726f206164604482015264647265737360d81b606482015260840161051a565b33611003818787878787611adf565b60005b845181101561112c5760008582815181106110235761102361281d565b6020026020010151905060008583815181106110415761104161281d565b602090810291909101810151600084815280835260408082206001600160a01b038e1683529093529190912054909150818110156110d45760405162461bcd60e51b815260206004820152602a60248201527f455243313135353a20696e73756666696369656e742062616c616e636520666f60448201526939103a3930b739b332b960b11b606482015260840161051a565b6000838152602081815260408083206001600160a01b038e8116855292528083208585039055908b16825281208054849290611111908490612968565b925050819055505050508061112590612849565b9050611006565b50846001600160a01b0316866001600160a01b0316826001600160a01b03167f4a39dc06d4c0dbc64b70af90fd698a233a518aa5d07e595d983b8c0526c8f7fb878760405161117c92919061297b565b60405180910390a4611192818787878787611b6a565b505050505050565b60008281526003602090815260408083206001600160a01b038516845290915290205460ff1661058a5760008281526003602090815260408083206001600160a01b03851684529091529020805460ff191660011790556111f83390565b6001600160a01b0316816001600160a01b0316837f2f8788117e7eff1d82e926ec794901d17c78024a50270940304540a733656f0d60405160405180910390a45050565b60008281526003602090815260408083206001600160a01b038516845290915290205460ff161561058a5760008281526003602090815260408083206001600160a01b0385168085529252808320805460ff1916905551339285917ff6391f5c32d9c69d2a47ea670b442974b53935d1edc7fd64eb21e047a839171b9190a45050565b6112c7611d0f565b6004805460ff191690557f5db9ee0a495bf2e6ff9c91a7834c1ba4fdd244a5e8aa4e537bd38aeae4b073aa335b6040516001600160a01b03909116815260200160405180910390a1565b6001600160a01b0383166113735760405162461bcd60e51b815260206004820152602360248201527f455243313135353a206275726e2066726f6d20746865207a65726f206164647260448201526265737360e81b606482015260840161051a565b80518251146113d55760405162461bcd60e51b815260206004820152602860248201527f455243313135353a2069647320616e6420616d6f756e7473206c656e677468206044820152670dad2e6dac2e8c6d60c31b606482015260840161051a565b60003390506113f881856000868660405180602001604052806000815250611adf565b60005b83518110156114f95760008482815181106114185761141861281d565b6020026020010151905060008483815181106114365761143661281d565b602090810291909101810151600084815280835260408082206001600160a01b038c1683529093529190912054909150818110156114c25760405162461bcd60e51b8152602060048201526024808201527f455243313135353a206275726e20616d6f756e7420657863656564732062616c604482015263616e636560e01b606482015260840161051a565b6000928352602083815260408085206001600160a01b038b16865290915290922091039055806114f181612849565b9150506113fb565b5060006001600160a01b0316846001600160a01b0316826001600160a01b03167f4a39dc06d4c0dbc64b70af90fd698a233a518aa5d07e595d983b8c0526c8f7fb868660405161154a92919061297b565b60405180910390a4604080516020810190915260009052610d18565b6001600160a01b0384166115c65760405162461bcd60e51b815260206004820152602160248201527f455243313135353a206d696e7420746f20746865207a65726f206164647265736044820152607360f81b606482015260840161051a565b3360006115d285611d63565b905060006115df85611d63565b90506115f083600089858589611adf565b6000868152602081815260408083206001600160a01b038b16845290915281208054879290611620908490612968565b909155505060408051878152602081018790526001600160a01b03808a1692600092918716917fc3d58168c5ae7397731d063d5bbf3d657854427343f4c083240f7aacaa2d0f62910160405180910390a461168083600089898989611dae565b50505050505050565b611691611eaa565b6004805460ff191660011790557f62e78cea01bee320cd4e420270b5ea74000d11b0c9f74754ebdbfc544b05a2586112f43390565b6001600160a01b03841661172a5760405162461bcd60e51b815260206004820152602560248201527f455243313135353a207472616e7366657220746f20746865207a65726f206164604482015264647265737360d81b606482015260840161051a565b33600061173685611d63565b9050600061174385611d63565b9050611753838989858589611adf565b6000868152602081815260408083206001600160a01b038c168452909152902054858110156117d75760405162461bcd60e51b815260206004820152602a60248201527f455243313135353a20696e73756666696369656e742062616c616e636520666f60448201526939103a3930b739b332b960b11b606482015260840161051a565b6000878152602081815260408083206001600160a01b038d8116855292528083208985039055908a16825281208054889290611814908490612968565b909155505060408051888152602081018890526001600160a01b03808b16928c821692918816917fc3d58168c5ae7397731d063d5bbf3d657854427343f4c083240f7aacaa2d0f62910160405180910390a4611874848a8a8a8a8a611dae565b505050505050505050565b6001600160a01b0383166118e15760405162461bcd60e51b815260206004820152602360248201527f455243313135353a206275726e2066726f6d20746865207a65726f206164647260448201526265737360e81b606482015260840161051a565b3360006118ed84611d63565b905060006118fa84611d63565b905061191a83876000858560405180602001604052806000815250611adf565b6000858152602081815260408083206001600160a01b038a168452909152902054848110156119975760405162461bcd60e51b8152602060048201526024808201527f455243313135353a206275726e20616d6f756e7420657863656564732062616c604482015263616e636560e01b606482015260840161051a565b6000868152602081815260408083206001600160a01b038b81168086529184528285208a8703905582518b81529384018a90529092908816917fc3d58168c5ae7397731d063d5bbf3d657854427343f4c083240f7aacaa2d0f62910160405180910390a4604080516020810190915260009052611680565b60006001600160e01b03198216636cdb3d1360e11b1480611a4057506001600160e01b031982166303a24d0760e21b145b8061054657506301ffc9a760e01b6001600160e01b0319831614610546565b60008281526003602090815260408083206001600160a01b038516845290915290205460ff1661058a57611a9d816001600160a01b03166014611efd565b611aa8836020611efd565b604051602001611ab99291906129a9565b60408051601f198184030181529082905262461bcd60e51b825261051a91600401612268565b611ae7611eaa565b6001600160a01b0385161580611b0457506001600160a01b038416155b611b655760405162461bcd60e51b815260206004820152602c60248201527f5468697320746f6b656e206973205342542c20736f20746869732063616e206e60448201526b37ba103a3930b739b332b91760a11b606482015260840161051a565b611192565b6001600160a01b0384163b156111925760405163bc197c8160e01b81526001600160a01b0385169063bc197c8190611bae9089908990889088908890600401612a2a565b6020604051808303816000875af1925050508015611be9575060408051601f3d908101601f19168201909252611be691810190612a88565b60015b611c9e57611bf5612aa5565b806308c379a003611c2e5750611c09612ac1565b80611c145750611c30565b8060405162461bcd60e51b815260040161051a9190612268565b505b60405162461bcd60e51b815260206004820152603460248201527f455243313135353a207472616e7366657220746f206e6f6e204552433131353560448201527f526563656976657220696d706c656d656e746572000000000000000000000000606482015260840161051a565b6001600160e01b0319811663bc197c8160e01b146116805760405162461bcd60e51b815260206004820152602860248201527f455243313135353a204552433131353552656365697665722072656a656374656044820152676420746f6b656e7360c01b606482015260840161051a565b60045460ff16611d615760405162461bcd60e51b815260206004820152601460248201527f5061757361626c653a206e6f7420706175736564000000000000000000000000604482015260640161051a565b565b60408051600180825281830190925260609160009190602080830190803683370190505090508281600081518110611d9d57611d9d61281d565b602090810291909101015292915050565b6001600160a01b0384163b156111925760405163f23a6e6160e01b81526001600160a01b0385169063f23a6e6190611df29089908990889088908890600401612b4b565b6020604051808303816000875af1925050508015611e2d575060408051601f3d908101601f19168201909252611e2a91810190612a88565b60015b611e3957611bf5612aa5565b6001600160e01b0319811663f23a6e6160e01b146116805760405162461bcd60e51b815260206004820152602860248201527f455243313135353a204552433131353552656365697665722072656a656374656044820152676420746f6b656e7360c01b606482015260840161051a565b60045460ff1615611d615760405162461bcd60e51b815260206004820152601060248201527f5061757361626c653a2070617573656400000000000000000000000000000000604482015260640161051a565b60606000611f0c836002612b8e565b611f17906002612968565b67ffffffffffffffff811115611f2f57611f2f612126565b6040519080825280601f01601f191660200182016040528015611f59576020820181803683370190505b509050600360fc1b81600081518110611f7457611f7461281d565b60200101906001600160f81b031916908160001a905350600f60fb1b81600181518110611fa357611fa361281d565b60200101906001600160f81b031916908160001a9053506000611fc7846002612b8e565b611fd2906001612968565b90505b6001811115612057577f303132333435363738396162636465660000000000000000000000000000000085600f16601081106120135761201361281d565b1a60f81b8282815181106120295761202961281d565b60200101906001600160f81b031916908160001a90535060049490941c9361205081612ba5565b9050611fd5565b5083156120a65760405162461bcd60e51b815260206004820181905260248201527f537472696e67733a20686578206c656e67746820696e73756666696369656e74604482015260640161051a565b9392505050565b80356001600160a01b03811681146120c457600080fd5b919050565b600080604083850312156120dc57600080fd5b6120e5836120ad565b946020939093013593505050565b6001600160e01b03198116811461085e57600080fd5b60006020828403121561211b57600080fd5b81356120a6816120f3565b634e487b7160e01b600052604160045260246000fd5b601f8201601f1916810167ffffffffffffffff8111828210171561216257612162612126565b6040525050565b600067ffffffffffffffff83111561218357612183612126565b60405161219a601f8501601f19166020018261213c565b8091508381528484840111156121af57600080fd5b83836020830137600060208583010152509392505050565b6000602082840312156121d957600080fd5b813567ffffffffffffffff8111156121f057600080fd5b8201601f8101841361220157600080fd5b61221084823560208401612169565b949350505050565b60005b8381101561223357818101518382015260200161221b565b50506000910152565b60008151808452612254816020860160208601612218565b601f01601f19169290920160200192915050565b6020815260006120a6602083018461223c565b60006020828403121561228d57600080fd5b5035919050565b600067ffffffffffffffff8211156122ae576122ae612126565b5060051b60200190565b600082601f8301126122c957600080fd5b813560206122d682612294565b6040516122e3828261213c565b83815260059390931b850182019282810191508684111561230357600080fd5b8286015b8481101561231e5780358352918301918301612307565b509695505050505050565b600082601f83011261233a57600080fd5b6120a683833560208501612169565b6000806000806080858703121561235f57600080fd5b612368856120ad565b9350602085013567ffffffffffffffff8082111561238557600080fd5b612391888389016122b8565b945060408701359150808211156123a757600080fd5b6123b3888389016122b8565b935060608701359150808211156123c957600080fd5b506123d687828801612329565b91505092959194509250565b600080600080600060a086880312156123fa57600080fd5b612403866120ad565b9450612411602087016120ad565b9350604086013567ffffffffffffffff8082111561242e57600080fd5b61243a89838a016122b8565b9450606088013591508082111561245057600080fd5b61245c89838a016122b8565b9350608088013591508082111561247257600080fd5b5061247f88828901612329565b9150509295509295909350565b6000806040838503121561249f57600080fd5b823591506124af602084016120ad565b90509250929050565b600082601f8301126124c957600080fd5b813560206124d682612294565b6040516124e3828261213c565b83815260059390931b850182019282810191508684111561250357600080fd5b8286015b8481101561231e57612518816120ad565b8352918301918301612507565b6000806040838503121561253857600080fd5b823567ffffffffffffffff8082111561255057600080fd5b61255c868387016124b8565b9350602085013591508082111561257257600080fd5b5061257f858286016122b8565b9150509250929050565b600081518084526020808501945080840160005b838110156125b95781518752958201959082019060010161259d565b509495945050505050565b6020815260006120a66020830184612589565b6000806000606084860312156125ec57600080fd5b6125f5846120ad565b9250602084013567ffffffffffffffff8082111561261257600080fd5b61261e878388016122b8565b9350604086013591508082111561263457600080fd5b50612641868287016122b8565b9150509250925092565b6000806000806080858703121561266157600080fd5b61266a856120ad565b93506020850135925060408501359150606085013567ffffffffffffffff81111561269457600080fd5b6123d687828801612329565b600080604083850312156126b357600080fd5b6126bc836120ad565b9150602083013580151581146126d157600080fd5b809150509250929050565b600080604083850312156126ef57600080fd5b6126f8836120ad565b91506124af602084016120ad565b600080600080600060a0868803121561271e57600080fd5b612727866120ad565b9450612735602087016120ad565b93506040860135925060608601359150608086013567ffffffffffffffff81111561275f57600080fd5b61247f88828901612329565b60008060006060848603121561278057600080fd5b612789846120ad565b95602085013595506040909401359392505050565b600080604083850312156127b157600080fd5b823567ffffffffffffffff8111156127c857600080fd5b6127d4858286016124b8565b95602094909401359450505050565b600181811c908216806127f757607f821691505b60208210810361281757634e487b7160e01b600052602260045260246000fd5b50919050565b634e487b7160e01b600052603260045260246000fd5b634e487b7160e01b600052601160045260246000fd5b60006001820161285b5761285b612833565b5060010190565b601f82111561079f57600081815260208120601f850160051c810160208610156128895750805b601f850160051c820191505b8181101561119257828155600101612895565b815167ffffffffffffffff8111156128c2576128c2612126565b6128d6816128d084546127e3565b84612862565b602080601f83116001811461290b57600084156128f35750858301515b600019600386901b1c1916600185901b178555611192565b600085815260208120601f198616915b8281101561293a5788860151825594840194600190910190840161291b565b50858210156129585787850151600019600388901b60f8161c191681555b5050505050600190811b01905550565b8082018082111561054657610546612833565b60408152600061298e6040830185612589565b82810360208401526129a08185612589565b95945050505050565b7f416363657373436f6e74726f6c3a206163636f756e74200000000000000000008152600083516129e1816017850160208801612218565b7f206973206d697373696e6720726f6c65200000000000000000000000000000006017918401918201528351612a1e816028840160208801612218565b01602801949350505050565b60006001600160a01b03808816835280871660208401525060a06040830152612a5660a0830186612589565b8281036060840152612a688186612589565b90508281036080840152612a7c818561223c565b98975050505050505050565b600060208284031215612a9a57600080fd5b81516120a6816120f3565b600060033d1115612abe5760046000803e5060005160e01c5b90565b600060443d1015612acf5790565b6040516003193d81016004833e81513d67ffffffffffffffff8160248401118184111715612aff57505050505090565b8285019150815181811115612b175750505050505090565b843d8701016020828501011115612b315750505050505090565b612b406020828601018761213c565b509095945050505050565b60006001600160a01b03808816835280871660208401525084604083015283606083015260a06080830152612b8360a083018461223c565b979650505050505050565b808202811582820484141761054657610546612833565b600081612bb457612bb4612833565b50600019019056fea2646970667358221220b867b4936382c0d1e20d23d53fb116ca9b0a7f5ec3149934a3e066a22fda14f864736f6c63430008110033",
    "linkReferences": {},
    "deployedLinkReferences": {}
}