{
  "_format": "hh-sol-artifact-1",
  "contractName": "LabEventSBT",
  "sourceName": "contracts/LabEventSBT.sol",
  "abi": [
    {
      "inputs": [],
      "stateMutability": "nonpayable",
      "type": "constructor"
    },
    {
      "anonymous": false,
      "inputs": [
        {
          "indexed": true,
          "internalType": "address",
          "name": "account",
          "type": "address"
        },
        {
          "indexed": true,
          "internalType": "address",
          "name": "operator",
          "type": "address"
        },
        {
          "indexed": false,
          "internalType": "bool",
          "name": "approved",
          "type": "bool"
        }
      ],
      "name": "ApprovalForAll",
      "type": "event"
    },
    {
      "anonymous": false,
      "inputs": [
        {
          "indexed": false,
          "internalType": "address",
          "name": "account",
          "type": "address"
        }
      ],
      "name": "Paused",
      "type": "event"
    },
    {
      "anonymous": false,
      "inputs": [
        {
          "indexed": true,
          "internalType": "bytes32",
          "name": "role",
          "type": "bytes32"
        },
        {
          "indexed": true,
          "internalType": "bytes32",
          "name": "previousAdminRole",
          "type": "bytes32"
        },
        {
          "indexed": true,
          "internalType": "bytes32",
          "name": "newAdminRole",
          "type": "bytes32"
        }
      ],
      "name": "RoleAdminChanged",
      "type": "event"
    },
    {
      "anonymous": false,
      "inputs": [
        {
          "indexed": true,
          "internalType": "bytes32",
          "name": "role",
          "type": "bytes32"
        },
        {
          "indexed": true,
          "internalType": "address",
          "name": "account",
          "type": "address"
        },
        {
          "indexed": true,
          "internalType": "address",
          "name": "sender",
          "type": "address"
        }
      ],
      "name": "RoleGranted",
      "type": "event"
    },
    {
      "anonymous": false,
      "inputs": [
        {
          "indexed": true,
          "internalType": "bytes32",
          "name": "role",
          "type": "bytes32"
        },
        {
          "indexed": true,
          "internalType": "address",
          "name": "account",
          "type": "address"
        },
        {
          "indexed": true,
          "internalType": "address",
          "name": "sender",
          "type": "address"
        }
      ],
      "name": "RoleRevoked",
      "type": "event"
    },
    {
      "anonymous": false,
      "inputs": [
        {
          "indexed": true,
          "internalType": "address",
          "name": "operator",
          "type": "address"
        },
        {
          "indexed": true,
          "internalType": "address",
          "name": "from",
          "type": "address"
        },
        {
          "indexed": true,
          "internalType": "address",
          "name": "to",
          "type": "address"
        },
        {
          "indexed": false,
          "internalType": "uint256[]",
          "name": "ids",
          "type": "uint256[]"
        },
        {
          "indexed": false,
          "internalType": "uint256[]",
          "name": "values",
          "type": "uint256[]"
        }
      ],
      "name": "TransferBatch",
      "type": "event"
    },
    {
      "anonymous": false,
      "inputs": [
        {
          "indexed": true,
          "internalType": "address",
          "name": "operator",
          "type": "address"
        },
        {
          "indexed": true,
          "internalType": "address",
          "name": "from",
          "type": "address"
        },
        {
          "indexed": true,
          "internalType": "address",
          "name": "to",
          "type": "address"
        },
        {
          "indexed": false,
          "internalType": "uint256",
          "name": "id",
          "type": "uint256"
        },
        {
          "indexed": false,
          "internalType": "uint256",
          "name": "value",
          "type": "uint256"
        }
      ],
      "name": "TransferSingle",
      "type": "event"
    },
    {
      "anonymous": false,
      "inputs": [
        {
          "indexed": false,
          "internalType": "string",
          "name": "value",
          "type": "string"
        },
        {
          "indexed": true,
          "internalType": "uint256",
          "name": "id",
          "type": "uint256"
        }
      ],
      "name": "URI",
      "type": "event"
    },
    {
      "anonymous": false,
      "inputs": [
        {
          "indexed": false,
          "internalType": "address",
          "name": "account",
          "type": "address"
        }
      ],
      "name": "Unpaused",
      "type": "event"
    },
    {
      "inputs": [],
      "name": "DEFAULT_ADMIN_ROLE",
      "outputs": [
        {
          "internalType": "bytes32",
          "name": "",
          "type": "bytes32"
        }
      ],
      "stateMutability": "view",
      "type": "function"
    },
    {
      "inputs": [],
      "name": "MINTER_ROLE",
      "outputs": [
        {
          "internalType": "bytes32",
          "name": "",
          "type": "bytes32"
        }
      ],
      "stateMutability": "view",
      "type": "function"
    },
    {
      "inputs": [],
      "name": "PAUSER_ROLE",
      "outputs": [
        {
          "internalType": "bytes32",
          "name": "",
          "type": "bytes32"
        }
      ],
      "stateMutability": "view",
      "type": "function"
    },
    {
      "inputs": [],
      "name": "URI_SETTER_ROLE",
      "outputs": [
        {
          "internalType": "bytes32",
          "name": "",
          "type": "bytes32"
        }
      ],
      "stateMutability": "view",
      "type": "function"
    },
    {
      "inputs": [
        {
          "internalType": "address[]",
          "name": "recievers",
          "type": "address[]"
        },
        {
          "internalType": "uint256",
          "name": "id",
          "type": "uint256"
        }
      ],
      "name": "airDrop",
      "outputs": [],
      "stateMutability": "nonpayable",
      "type": "function"
    },
    {
      "inputs": [
        {
          "internalType": "address",
          "name": "account",
          "type": "address"
        },
        {
          "internalType": "uint256",
          "name": "id",
          "type": "uint256"
        }
      ],
      "name": "balanceOf",
      "outputs": [
        {
          "internalType": "uint256",
          "name": "",
          "type": "uint256"
        }
      ],
      "stateMutability": "view",
      "type": "function"
    },
    {
      "inputs": [
        {
          "internalType": "address[]",
          "name": "accounts",
          "type": "address[]"
        },
        {
          "internalType": "uint256[]",
          "name": "ids",
          "type": "uint256[]"
        }
      ],
      "name": "balanceOfBatch",
      "outputs": [
        {
          "internalType": "uint256[]",
          "name": "",
          "type": "uint256[]"
        }
      ],
      "stateMutability": "view",
      "type": "function"
    },
    {
      "inputs": [
        {
          "internalType": "address",
          "name": "account",
          "type": "address"
        },
        {
          "internalType": "uint256",
          "name": "id",
          "type": "uint256"
        },
        {
          "internalType": "uint256",
          "name": "value",
          "type": "uint256"
        }
      ],
      "name": "burn",
      "outputs": [],
      "stateMutability": "nonpayable",
      "type": "function"
    },
    {
      "inputs": [
        {
          "internalType": "address",
          "name": "account",
          "type": "address"
        },
        {
          "internalType": "uint256[]",
          "name": "ids",
          "type": "uint256[]"
        },
        {
          "internalType": "uint256[]",
          "name": "values",
          "type": "uint256[]"
        }
      ],
      "name": "burnBatch",
      "outputs": [],
      "stateMutability": "nonpayable",
      "type": "function"
    },
    {
      "inputs": [
        {
          "internalType": "bytes32",
          "name": "role",
          "type": "bytes32"
        }
      ],
      "name": "getRoleAdmin",
      "outputs": [
        {
          "internalType": "bytes32",
          "name": "",
          "type": "bytes32"
        }
      ],
      "stateMutability": "view",
      "type": "function"
    },
    {
      "inputs": [
        {
          "internalType": "bytes32",
          "name": "role",
          "type": "bytes32"
        },
        {
          "internalType": "address",
          "name": "account",
          "type": "address"
        }
      ],
      "name": "grantRole",
      "outputs": [],
      "stateMutability": "nonpayable",
      "type": "function"
    },
    {
      "inputs": [
        {
          "internalType": "bytes32",
          "name": "role",
          "type": "bytes32"
        },
        {
          "internalType": "address",
          "name": "account",
          "type": "address"
        }
      ],
      "name": "hasRole",
      "outputs": [
        {
          "internalType": "bool",
          "name": "",
          "type": "bool"
        }
      ],
      "stateMutability": "view",
      "type": "function"
    },
    {
      "inputs": [
        {
          "internalType": "address",
          "name": "account",
          "type": "address"
        },
        {
          "internalType": "address",
          "name": "operator",
          "type": "address"
        }
      ],
      "name": "isApprovedForAll",
      "outputs": [
        {
          "internalType": "bool",
          "name": "",
          "type": "bool"
        }
      ],
      "stateMutability": "view",
      "type": "function"
    },
    {
      "inputs": [
        {
          "internalType": "address",
          "name": "account",
          "type": "address"
        },
        {
          "internalType": "uint256",
          "name": "id",
          "type": "uint256"
        },
        {
          "internalType": "uint256",
          "name": "amount",
          "type": "uint256"
        },
        {
          "internalType": "bytes",
          "name": "data",
          "type": "bytes"
        }
      ],
      "name": "mint",
      "outputs": [],
      "stateMutability": "nonpayable",
      "type": "function"
    },
    {
      "inputs": [
        {
          "internalType": "address",
          "name": "to",
          "type": "address"
        },
        {
          "internalType": "uint256[]",
          "name": "ids",
          "type": "uint256[]"
        },
        {
          "internalType": "uint256[]",
          "name": "amounts",
          "type": "uint256[]"
        },
        {
          "internalType": "bytes",
          "name": "data",
          "type": "bytes"
        }
      ],
      "name": "mintBatch",
      "outputs": [],
      "stateMutability": "nonpayable",
      "type": "function"
    },
    {
      "inputs": [],
      "name": "name",
      "outputs": [
        {
          "internalType": "string",
          "name": "",
          "type": "string"
        }
      ],
      "stateMutability": "view",
      "type": "function"
    },
    {
      "inputs": [],
      "name": "pause",
      "outputs": [],
      "stateMutability": "nonpayable",
      "type": "function"
    },
    {
      "inputs": [],
      "name": "paused",
      "outputs": [
        {
          "internalType": "bool",
          "name": "",
          "type": "bool"
        }
      ],
      "stateMutability": "view",
      "type": "function"
    },
    {
      "inputs": [
        {
          "internalType": "bytes32",
          "name": "role",
          "type": "bytes32"
        },
        {
          "internalType": "address",
          "name": "account",
          "type": "address"
        }
      ],
      "name": "renounceRole",
      "outputs": [],
      "stateMutability": "nonpayable",
      "type": "function"
    },
    {
      "inputs": [
        {
          "internalType": "bytes32",
          "name": "role",
          "type": "bytes32"
        },
        {
          "internalType": "address",
          "name": "account",
          "type": "address"
        }
      ],
      "name": "revokeRole",
      "outputs": [],
      "stateMutability": "nonpayable",
      "type": "function"
    },
    {
      "inputs": [
        {
          "internalType": "address",
          "name": "from",
          "type": "address"
        },
        {
          "internalType": "address",
          "name": "to",
          "type": "address"
        },
        {
          "internalType": "uint256[]",
          "name": "ids",
          "type": "uint256[]"
        },
        {
          "internalType": "uint256[]",
          "name": "amounts",
          "type": "uint256[]"
        },
        {
          "internalType": "bytes",
          "name": "data",
          "type": "bytes"
        }
      ],
      "name": "safeBatchTransferFrom",
      "outputs": [],
      "stateMutability": "nonpayable",
      "type": "function"
    },
    {
      "inputs": [
        {
          "internalType": "address",
          "name": "from",
          "type": "address"
        },
        {
          "internalType": "address",
          "name": "to",
          "type": "address"
        },
        {
          "internalType": "uint256",
          "name": "id",
          "type": "uint256"
        },
        {
          "internalType": "uint256",
          "name": "amount",
          "type": "uint256"
        },
        {
          "internalType": "bytes",
          "name": "data",
          "type": "bytes"
        }
      ],
      "name": "safeTransferFrom",
      "outputs": [],
      "stateMutability": "nonpayable",
      "type": "function"
    },
    {
      "inputs": [
        {
          "internalType": "address",
          "name": "",
          "type": "address"
        },
        {
          "internalType": "bool",
          "name": "",
          "type": "bool"
        }
      ],
      "name": "setApprovalForAll",
      "outputs": [],
      "stateMutability": "nonpayable",
      "type": "function"
    },
    {
      "inputs": [
        {
          "internalType": "string",
          "name": "newname",
          "type": "string"
        }
      ],
      "name": "setName",
      "outputs": [],
      "stateMutability": "nonpayable",
      "type": "function"
    },
    {
      "inputs": [
        {
          "internalType": "string",
          "name": "newsymbol",
          "type": "string"
        }
      ],
      "name": "setSymbol",
      "outputs": [],
      "stateMutability": "nonpayable",
      "type": "function"
    },
    {
      "inputs": [
        {
          "internalType": "string",
          "name": "newuri",
          "type": "string"
        }
      ],
      "name": "setURI",
      "outputs": [],
      "stateMutability": "nonpayable",
      "type": "function"
    },
    {
      "inputs": [
        {
          "internalType": "bytes4",
          "name": "interfaceId",
          "type": "bytes4"
        }
      ],
      "name": "supportsInterface",
      "outputs": [
        {
          "internalType": "bool",
          "name": "",
          "type": "bool"
        }
      ],
      "stateMutability": "view",
      "type": "function"
    },
    {
      "inputs": [],
      "name": "symbol",
      "outputs": [
        {
          "internalType": "string",
          "name": "",
          "type": "string"
        }
      ],
      "stateMutability": "view",
      "type": "function"
    },
    {
      "inputs": [],
      "name": "unpause",
      "outputs": [],
      "stateMutability": "nonpayable",
      "type": "function"
    },
    {
      "inputs": [
        {
          "internalType": "uint256",
          "name": "",
          "type": "uint256"
        }
      ],
      "name": "uri",
      "outputs": [
        {
          "internalType": "string",
          "name": "",
          "type": "string"
        }
      ],
      "stateMutability": "view",
      "type": "function"
    }
  ],
  "bytecode": "0x60806040523480156200001157600080fd5b506040518060200160405280600081525062000033816200010060201b60201c565b506000600460006101000a81548160ff021916908315150217905550620000646000801b336200011c60201b60201c565b620000967f7804d923f43a17d325d77e781528e0793b2edd9890ab45fc64efd7b4b427744c336200011c60201b60201c565b620000c87f65d7a28e3265b37a6474929f336521b332c1681b933f6cb9f3376673440d862a336200011c60201b60201c565b620000fa7f9f2df0fed2c77648de5860a4cc508cd0818c85b8b8a1ab4ceeef8d981c8956a6336200011c60201b60201c565b62000396565b80600290805190602001906200011892919062000281565b5050565b6200012e82826200020e60201b60201c565b6200020a5760016003600084815260200190815260200160002060000160008373ffffffffffffffffffffffffffffffffffffffff1673ffffffffffffffffffffffffffffffffffffffff16815260200190815260200160002060006101000a81548160ff021916908315150217905550620001af6200027960201b60201c565b73ffffffffffffffffffffffffffffffffffffffff168173ffffffffffffffffffffffffffffffffffffffff16837f2f8788117e7eff1d82e926ec794901d17c78024a50270940304540a733656f0d60405160405180910390a45b5050565b60006003600084815260200190815260200160002060000160008373ffffffffffffffffffffffffffffffffffffffff1673ffffffffffffffffffffffffffffffffffffffff16815260200190815260200160002060009054906101000a900460ff16905092915050565b600033905090565b8280546200028f9062000360565b90600052602060002090601f016020900481019282620002b35760008555620002ff565b82601f10620002ce57805160ff1916838001178555620002ff565b82800160010185558215620002ff579182015b82811115620002fe578251825591602001919060010190620002e1565b5b5090506200030e919062000312565b5090565b5b808211156200032d57600081600090555060010162000313565b5090565b7f4e487b7100000000000000000000000000000000000000000000000000000000600052602260045260246000fd5b600060028204905060018216806200037957607f821691505b6020821081141562000390576200038f62000331565b5b50919050565b61495680620003a66000396000f3fe608060405234801561001057600080fd5b50600436106101d95760003560e01c80637f34571011610104578063c47f0027116100a2578063e985e9c511610071578063e985e9c514610518578063f242432a14610548578063f5298aca14610564578063fd1fc4a014610580576101d9565b8063c47f0027146104a4578063d5391393146104c0578063d547741f146104de578063e63ab1e9146104fa576101d9565b806395d89b41116100de57806395d89b4114610430578063a217fddf1461044e578063a22cb4651461046c578063b84c824614610488576101d9565b80637f345710146103d85780638456cb59146103f657806391d1485414610400576101d9565b80632eb2c2d61161017c5780634e1273f41161014b5780634e1273f4146103525780635c975abb146103825780636b20c454146103a0578063731133e9146103bc576101d9565b80632eb2c2d6146102f45780632f2ff15d1461031057806336568abe1461032c5780633f4ba83a14610348576101d9565b806306fdde03116101b857806306fdde031461025a5780630e89341c146102785780631f7fdffa146102a8578063248a9ca3146102c4576101d9565b8062fdd58e146101de57806301ffc9a71461020e57806302fe53051461023e575b600080fd5b6101f860048036038101906101f39190612de2565b61059c565b6040516102059190612e31565b60405180910390f35b61022860048036038101906102239190612ea4565b610665565b6040516102359190612eec565b60405180910390f35b6102586004803603810190610253919061304d565b610677565b005b6102626106ae565b60405161026f919061311e565b60405180910390f35b610292600480360381019061028d9190613140565b61073c565b60405161029f919061311e565b60405180910390f35b6102c260048036038101906102bd91906132d6565b6107d0565b005b6102de60048036038101906102d991906133c7565b61080d565b6040516102eb9190613403565b60405180910390f35b61030e6004803603810190610309919061341e565b61082d565b005b61032a600480360381019061032591906134ed565b6108ce565b005b610346600480360381019061034191906134ed565b6108ef565b005b610350610972565b005b61036c600480360381019061036791906135f0565b6109a7565b6040516103799190613726565b60405180910390f35b61038a610ac0565b6040516103979190612eec565b60405180910390f35b6103ba60048036038101906103b59190613748565b610ad7565b005b6103d660048036038101906103d191906137d3565b610b74565b005b6103e0610bb1565b6040516103ed9190613403565b60405180910390f35b6103fe610bd5565b005b61041a600480360381019061041591906134ed565b610c0a565b6040516104279190612eec565b60405180910390f35b610438610c75565b604051610445919061311e565b60405180910390f35b610456610d03565b6040516104639190613403565b60405180910390f35b61048660048036038101906104819190613882565b610d0a565b005b6104a2600480360381019061049d919061304d565b610d45565b005b6104be60048036038101906104b9919061304d565b610d8a565b005b6104c8610dcf565b6040516104d59190613403565b60405180910390f35b6104f860048036038101906104f391906134ed565b610df3565b005b610502610e14565b60405161050f9190613403565b60405180910390f35b610532600480360381019061052d91906138c2565b610e38565b60405161053f9190612eec565b60405180910390f35b610562600480360381019061055d9190613902565b610ecc565b005b61057e60048036038101906105799190613999565b610f6d565b005b61059a600480360381019061059591906139ec565b61100a565b005b60008073ffffffffffffffffffffffffffffffffffffffff168373ffffffffffffffffffffffffffffffffffffffff16141561060d576040517f08c379a000000000000000000000000000000000000000000000000000000000815260040161060490613aba565b60405180910390fd5b60008083815260200190815260200160002060008473ffffffffffffffffffffffffffffffffffffffff1673ffffffffffffffffffffffffffffffffffffffff16815260200190815260200160002054905092915050565b6000610670826110b5565b9050919050565b7f7804d923f43a17d325d77e781528e0793b2edd9890ab45fc64efd7b4b427744c6106a18161112f565b6106aa82611143565b5050565b600580546106bb90613b09565b80601f01602080910402602001604051908101604052809291908181526020018280546106e790613b09565b80156107345780601f1061070957610100808354040283529160200191610734565b820191906000526020600020905b81548152906001019060200180831161071757829003601f168201915b505050505081565b60606002805461074b90613b09565b80601f016020809104026020016040519081016040528092919081815260200182805461077790613b09565b80156107c45780601f10610799576101008083540402835291602001916107c4565b820191906000526020600020905b8154815290600101906020018083116107a757829003601f168201915b50505050509050919050565b7f9f2df0fed2c77648de5860a4cc508cd0818c85b8b8a1ab4ceeef8d981c8956a66107fa8161112f565b6108068585858561115d565b5050505050565b600060036000838152602001908152602001600020600101549050919050565b61083561138a565b73ffffffffffffffffffffffffffffffffffffffff168573ffffffffffffffffffffffffffffffffffffffff16148061087b575061087a8561087561138a565b610e38565b5b6108ba576040517f08c379a00000000000000000000000000000000000000000000000000000000081526004016108b190613bad565b60405180910390fd5b6108c78585858585611392565b5050505050565b6108d78261080d565b6108e08161112f565b6108ea83836116b4565b505050565b6108f761138a565b73ffffffffffffffffffffffffffffffffffffffff168173ffffffffffffffffffffffffffffffffffffffff1614610964576040517f08c379a000000000000000000000000000000000000000000000000000000000815260040161095b90613c3f565b60405180910390fd5b61096e8282611795565b5050565b7f65d7a28e3265b37a6474929f336521b332c1681b933f6cb9f3376673440d862a61099c8161112f565b6109a4611877565b50565b606081518351146109ed576040517f08c379a00000000000000000000000000000000000000000000000000000000081526004016109e490613cd1565b60405180910390fd5b6000835167ffffffffffffffff811115610a0a57610a09612f22565b5b604051908082528060200260200182016040528015610a385781602001602082028036833780820191505090505b50905060005b8451811015610ab557610a85858281518110610a5d57610a5c613cf1565b5b6020026020010151858381518110610a7857610a77613cf1565b5b602002602001015161059c565b828281518110610a9857610a97613cf1565b5b60200260200101818152505080610aae90613d4f565b9050610a3e565b508091505092915050565b6000600460009054906101000a900460ff16905090565b610adf61138a565b73ffffffffffffffffffffffffffffffffffffffff168373ffffffffffffffffffffffffffffffffffffffff161480610b255750610b2483610b1f61138a565b610e38565b5b610b64576040517f08c379a0000000000000000000000000000000000000000000000000000000008152600401610b5b90613bad565b60405180910390fd5b610b6f8383836118da565b505050565b7f9f2df0fed2c77648de5860a4cc508cd0818c85b8b8a1ab4ceeef8d981c8956a6610b9e8161112f565b610baa85858585611ba9565b5050505050565b7f7804d923f43a17d325d77e781528e0793b2edd9890ab45fc64efd7b4b427744c81565b7f65d7a28e3265b37a6474929f336521b332c1681b933f6cb9f3376673440d862a610bff8161112f565b610c07611d5a565b50565b60006003600084815260200190815260200160002060000160008373ffffffffffffffffffffffffffffffffffffffff1673ffffffffffffffffffffffffffffffffffffffff16815260200190815260200160002060009054906101000a900460ff16905092915050565b60068054610c8290613b09565b80601f0160208091040260200160405190810160405280929190818152602001828054610cae90613b09565b8015610cfb5780601f10610cd057610100808354040283529160200191610cfb565b820191906000526020600020905b815481529060010190602001808311610cde57829003601f168201915b505050505081565b6000801b81565b6040517f08c379a0000000000000000000000000000000000000000000000000000000008152600401610d3c90613e0a565b60405180910390fd5b7f7804d923f43a17d325d77e781528e0793b2edd9890ab45fc64efd7b4b427744c610d6f8161112f565b8160069080519060200190610d85929190612c97565b505050565b7f7804d923f43a17d325d77e781528e0793b2edd9890ab45fc64efd7b4b427744c610db48161112f565b8160059080519060200190610dca929190612c97565b505050565b7f9f2df0fed2c77648de5860a4cc508cd0818c85b8b8a1ab4ceeef8d981c8956a681565b610dfc8261080d565b610e058161112f565b610e0f8383611795565b505050565b7f65d7a28e3265b37a6474929f336521b332c1681b933f6cb9f3376673440d862a81565b6000600160008473ffffffffffffffffffffffffffffffffffffffff1673ffffffffffffffffffffffffffffffffffffffff16815260200190815260200160002060008373ffffffffffffffffffffffffffffffffffffffff1673ffffffffffffffffffffffffffffffffffffffff16815260200190815260200160002060009054906101000a900460ff16905092915050565b610ed461138a565b73ffffffffffffffffffffffffffffffffffffffff168573ffffffffffffffffffffffffffffffffffffffff161480610f1a5750610f1985610f1461138a565b610e38565b5b610f59576040517f08c379a0000000000000000000000000000000000000000000000000000000008152600401610f5090613bad565b60405180910390fd5b610f668585858585611dbd565b5050505050565b610f7561138a565b73ffffffffffffffffffffffffffffffffffffffff168373ffffffffffffffffffffffffffffffffffffffff161480610fbb5750610fba83610fb561138a565b610e38565b5b610ffa576040517f08c379a0000000000000000000000000000000000000000000000000000000008152600401610ff190613bad565b60405180910390fd5b611005838383612059565b505050565b7f9f2df0fed2c77648de5860a4cc508cd0818c85b8b8a1ab4ceeef8d981c8956a66110348161112f565b60005b83518110156110af5761109c84828151811061105657611055613cf1565b5b60200260200101518460016040518060400160405280600281526020017f3078000000000000000000000000000000000000000000000000000000000000815250610b74565b80806110a790613d4f565b915050611037565b50505050565b60007f7965db0b000000000000000000000000000000000000000000000000000000007bffffffffffffffffffffffffffffffffffffffffffffffffffffffff1916827bffffffffffffffffffffffffffffffffffffffffffffffffffffffff191614806111285750611127826122a0565b5b9050919050565b6111408161113b61138a565b612382565b50565b8060029080519060200190611159929190612c97565b5050565b600073ffffffffffffffffffffffffffffffffffffffff168473ffffffffffffffffffffffffffffffffffffffff1614156111cd576040517f08c379a00000000000000000000000000000000000000000000000000000000081526004016111c490613e9c565b60405180910390fd5b8151835114611211576040517f08c379a000000000000000000000000000000000000000000000000000000000815260040161120890613f2e565b60405180910390fd5b600061121b61138a565b905061122c8160008787878761241f565b60005b84518110156112e55783818151811061124b5761124a613cf1565b5b602002602001015160008087848151811061126957611268613cf1565b5b6020026020010151815260200190815260200160002060008873ffffffffffffffffffffffffffffffffffffffff1673ffffffffffffffffffffffffffffffffffffffff16815260200190815260200160002060008282546112cb9190613f4e565b9250508190555080806112dd90613d4f565b91505061122f565b508473ffffffffffffffffffffffffffffffffffffffff16600073ffffffffffffffffffffffffffffffffffffffff168273ffffffffffffffffffffffffffffffffffffffff167f4a39dc06d4c0dbc64b70af90fd698a233a518aa5d07e595d983b8c0526c8f7fb878760405161135d929190613fa4565b60405180910390a4611374816000878787876124e3565b611383816000878787876124eb565b5050505050565b600033905090565b81518351146113d6576040517f08c379a00000000000000000000000000000000000000000000000000000000081526004016113cd90613f2e565b60405180910390fd5b600073ffffffffffffffffffffffffffffffffffffffff168473ffffffffffffffffffffffffffffffffffffffff161415611446576040517f08c379a000000000000000000000000000000000000000000000000000000000815260040161143d9061404d565b60405180910390fd5b600061145061138a565b905061146081878787878761241f565b60005b845181101561161157600085828151811061148157611480613cf1565b5b6020026020010151905060008583815181106114a05761149f613cf1565b5b60200260200101519050600080600084815260200190815260200160002060008b73ffffffffffffffffffffffffffffffffffffffff1673ffffffffffffffffffffffffffffffffffffffff16815260200190815260200160002054905081811015611541576040517f08c379a0000000000000000000000000000000000000000000000000000000008152600401611538906140df565b60405180910390fd5b81810360008085815260200190815260200160002060008c73ffffffffffffffffffffffffffffffffffffffff1673ffffffffffffffffffffffffffffffffffffffff168152602001908152602001600020819055508160008085815260200190815260200160002060008b73ffffffffffffffffffffffffffffffffffffffff1673ffffffffffffffffffffffffffffffffffffffff16815260200190815260200160002060008282546115f69190613f4e565b925050819055505050508061160a90613d4f565b9050611463565b508473ffffffffffffffffffffffffffffffffffffffff168673ffffffffffffffffffffffffffffffffffffffff168273ffffffffffffffffffffffffffffffffffffffff167f4a39dc06d4c0dbc64b70af90fd698a233a518aa5d07e595d983b8c0526c8f7fb8787604051611688929190613fa4565b60405180910390a461169e8187878787876124e3565b6116ac8187878787876124eb565b505050505050565b6116be8282610c0a565b6117915760016003600084815260200190815260200160002060000160008373ffffffffffffffffffffffffffffffffffffffff1673ffffffffffffffffffffffffffffffffffffffff16815260200190815260200160002060006101000a81548160ff02191690831515021790555061173661138a565b73ffffffffffffffffffffffffffffffffffffffff168173ffffffffffffffffffffffffffffffffffffffff16837f2f8788117e7eff1d82e926ec794901d17c78024a50270940304540a733656f0d60405160405180910390a45b5050565b61179f8282610c0a565b156118735760006003600084815260200190815260200160002060000160008373ffffffffffffffffffffffffffffffffffffffff1673ffffffffffffffffffffffffffffffffffffffff16815260200190815260200160002060006101000a81548160ff02191690831515021790555061181861138a565b73ffffffffffffffffffffffffffffffffffffffff168173ffffffffffffffffffffffffffffffffffffffff16837ff6391f5c32d9c69d2a47ea670b442974b53935d1edc7fd64eb21e047a839171b60405160405180910390a45b5050565b61187f6126d2565b6000600460006101000a81548160ff0219169083151502179055507f5db9ee0a495bf2e6ff9c91a7834c1ba4fdd244a5e8aa4e537bd38aeae4b073aa6118c361138a565b6040516118d0919061410e565b60405180910390a1565b600073ffffffffffffffffffffffffffffffffffffffff168373ffffffffffffffffffffffffffffffffffffffff16141561194a576040517f08c379a00000000000000000000000000000000000000000000000000000000081526004016119419061419b565b60405180910390fd5b805182511461198e576040517f08c379a000000000000000000000000000000000000000000000000000000000815260040161198590613f2e565b60405180910390fd5b600061199861138a565b90506119b88185600086866040518060200160405280600081525061241f565b60005b8351811015611b055760008482815181106119d9576119d8613cf1565b5b6020026020010151905060008483815181106119f8576119f7613cf1565b5b60200260200101519050600080600084815260200190815260200160002060008973ffffffffffffffffffffffffffffffffffffffff1673ffffffffffffffffffffffffffffffffffffffff16815260200190815260200160002054905081811015611a99576040517f08c379a0000000000000000000000000000000000000000000000000000000008152600401611a909061422d565b60405180910390fd5b81810360008085815260200190815260200160002060008a73ffffffffffffffffffffffffffffffffffffffff1673ffffffffffffffffffffffffffffffffffffffff168152602001908152602001600020819055505050508080611afd90613d4f565b9150506119bb565b50600073ffffffffffffffffffffffffffffffffffffffff168473ffffffffffffffffffffffffffffffffffffffff168273ffffffffffffffffffffffffffffffffffffffff167f4a39dc06d4c0dbc64b70af90fd698a233a518aa5d07e595d983b8c0526c8f7fb8686604051611b7d929190613fa4565b60405180910390a4611ba3818560008686604051806020016040528060008152506124e3565b50505050565b600073ffffffffffffffffffffffffffffffffffffffff168473ffffffffffffffffffffffffffffffffffffffff161415611c19576040517f08c379a0000000000000000000000000000000000000000000000000000000008152600401611c1090613e9c565b60405180910390fd5b6000611c2361138a565b90506000611c308561271b565b90506000611c3d8561271b565b9050611c4e8360008985858961241f565b8460008088815260200190815260200160002060008973ffffffffffffffffffffffffffffffffffffffff1673ffffffffffffffffffffffffffffffffffffffff1681526020019081526020016000206000828254611cad9190613f4e565b925050819055508673ffffffffffffffffffffffffffffffffffffffff16600073ffffffffffffffffffffffffffffffffffffffff168473ffffffffffffffffffffffffffffffffffffffff167fc3d58168c5ae7397731d063d5bbf3d657854427343f4c083240f7aacaa2d0f628989604051611d2b92919061424d565b60405180910390a4611d42836000898585896124e3565b611d5183600089898989612795565b50505050505050565b611d6261297c565b6001600460006101000a81548160ff0219169083151502179055507f62e78cea01bee320cd4e420270b5ea74000d11b0c9f74754ebdbfc544b05a258611da661138a565b604051611db3919061410e565b60405180910390a1565b600073ffffffffffffffffffffffffffffffffffffffff168473ffffffffffffffffffffffffffffffffffffffff161415611e2d576040517f08c379a0000000000000000000000000000000000000000000000000000000008152600401611e249061404d565b60405180910390fd5b6000611e3761138a565b90506000611e448561271b565b90506000611e518561271b565b9050611e6183898985858961241f565b600080600088815260200190815260200160002060008a73ffffffffffffffffffffffffffffffffffffffff1673ffffffffffffffffffffffffffffffffffffffff16815260200190815260200160002054905085811015611ef8576040517f08c379a0000000000000000000000000000000000000000000000000000000008152600401611eef906140df565b60405180910390fd5b85810360008089815260200190815260200160002060008b73ffffffffffffffffffffffffffffffffffffffff1673ffffffffffffffffffffffffffffffffffffffff168152602001908152602001600020819055508560008089815260200190815260200160002060008a73ffffffffffffffffffffffffffffffffffffffff1673ffffffffffffffffffffffffffffffffffffffff1681526020019081526020016000206000828254611fad9190613f4e565b925050819055508773ffffffffffffffffffffffffffffffffffffffff168973ffffffffffffffffffffffffffffffffffffffff168573ffffffffffffffffffffffffffffffffffffffff167fc3d58168c5ae7397731d063d5bbf3d657854427343f4c083240f7aacaa2d0f628a8a60405161202a92919061424d565b60405180910390a4612040848a8a86868a6124e3565b61204e848a8a8a8a8a612795565b505050505050505050565b600073ffffffffffffffffffffffffffffffffffffffff168373ffffffffffffffffffffffffffffffffffffffff1614156120c9576040517f08c379a00000000000000000000000000000000000000000000000000000000081526004016120c09061419b565b60405180910390fd5b60006120d361138a565b905060006120e08461271b565b905060006120ed8461271b565b905061210d8387600085856040518060200160405280600081525061241f565b600080600087815260200190815260200160002060008873ffffffffffffffffffffffffffffffffffffffff1673ffffffffffffffffffffffffffffffffffffffff168152602001908152602001600020549050848110156121a4576040517f08c379a000000000000000000000000000000000000000000000000000000000815260040161219b9061422d565b60405180910390fd5b84810360008088815260200190815260200160002060008973ffffffffffffffffffffffffffffffffffffffff1673ffffffffffffffffffffffffffffffffffffffff16815260200190815260200160002081905550600073ffffffffffffffffffffffffffffffffffffffff168773ffffffffffffffffffffffffffffffffffffffff168573ffffffffffffffffffffffffffffffffffffffff167fc3d58168c5ae7397731d063d5bbf3d657854427343f4c083240f7aacaa2d0f62898960405161227192919061424d565b60405180910390a4612297848860008686604051806020016040528060008152506124e3565b50505050505050565b60007fd9b67a26000000000000000000000000000000000000000000000000000000007bffffffffffffffffffffffffffffffffffffffffffffffffffffffff1916827bffffffffffffffffffffffffffffffffffffffffffffffffffffffff1916148061236b57507f0e89341c000000000000000000000000000000000000000000000000000000007bffffffffffffffffffffffffffffffffffffffffffffffffffffffff1916827bffffffffffffffffffffffffffffffffffffffffffffffffffffffff1916145b8061237b575061237a826129c6565b5b9050919050565b61238c8282610c0a565b61241b576123b18173ffffffffffffffffffffffffffffffffffffffff166014612a30565b6123bf8360001c6020612a30565b6040516020016123d092919061434a565b6040516020818303038152906040526040517f08c379a0000000000000000000000000000000000000000000000000000000008152600401612412919061311e565b60405180910390fd5b5050565b61242761297c565b600073ffffffffffffffffffffffffffffffffffffffff168573ffffffffffffffffffffffffffffffffffffffff16148061248e5750600073ffffffffffffffffffffffffffffffffffffffff168473ffffffffffffffffffffffffffffffffffffffff16145b6124cd576040517f08c379a00000000000000000000000000000000000000000000000000000000081526004016124c4906143f6565b60405180910390fd5b6124db868686868686612c6c565b505050505050565b505050505050565b61250a8473ffffffffffffffffffffffffffffffffffffffff16612c74565b156126ca578373ffffffffffffffffffffffffffffffffffffffff1663bc197c8187878686866040518663ffffffff1660e01b815260040161255095949392919061446b565b602060405180830381600087803b15801561256a57600080fd5b505af192505050801561259b57506040513d601f19601f8201168201806040525081019061259891906144e8565b60015b612641576125a7614522565b806308c379a0141561260457506125bc614544565b806125c75750612606565b806040517f08c379a00000000000000000000000000000000000000000000000000000000081526004016125fb919061311e565b60405180910390fd5b505b6040517f08c379a00000000000000000000000000000000000000000000000000000000081526004016126389061464c565b60405180910390fd5b63bc197c8160e01b7bffffffffffffffffffffffffffffffffffffffffffffffffffffffff1916817bffffffffffffffffffffffffffffffffffffffffffffffffffffffff1916146126c8576040517f08c379a00000000000000000000000000000000000000000000000000000000081526004016126bf906146de565b60405180910390fd5b505b505050505050565b6126da610ac0565b612719576040517f08c379a00000000000000000000000000000000000000000000000000000000081526004016127109061474a565b60405180910390fd5b565b60606000600167ffffffffffffffff81111561273a57612739612f22565b5b6040519080825280602002602001820160405280156127685781602001602082028036833780820191505090505b50905082816000815181106127805761277f613cf1565b5b60200260200101818152505080915050919050565b6127b48473ffffffffffffffffffffffffffffffffffffffff16612c74565b15612974578373ffffffffffffffffffffffffffffffffffffffff1663f23a6e6187878686866040518663ffffffff1660e01b81526004016127fa95949392919061476a565b602060405180830381600087803b15801561281457600080fd5b505af192505050801561284557506040513d601f19601f8201168201806040525081019061284291906144e8565b60015b6128eb57612851614522565b806308c379a014156128ae5750612866614544565b8061287157506128b0565b806040517f08c379a00000000000000000000000000000000000000000000000000000000081526004016128a5919061311e565b60405180910390fd5b505b6040517f08c379a00000000000000000000000000000000000000000000000000000000081526004016128e29061464c565b60405180910390fd5b63f23a6e6160e01b7bffffffffffffffffffffffffffffffffffffffffffffffffffffffff1916817bffffffffffffffffffffffffffffffffffffffffffffffffffffffff191614612972576040517f08c379a0000000000000000000000000000000000000000000000000000000008152600401612969906146de565b60405180910390fd5b505b505050505050565b612984610ac0565b156129c4576040517f08c379a00000000000000000000000000000000000000000000000000000000081526004016129bb90614810565b60405180910390fd5b565b60007f01ffc9a7000000000000000000000000000000000000000000000000000000007bffffffffffffffffffffffffffffffffffffffffffffffffffffffff1916827bffffffffffffffffffffffffffffffffffffffffffffffffffffffff1916149050919050565b606060006002836002612a439190614830565b612a4d9190613f4e565b67ffffffffffffffff811115612a6657612a65612f22565b5b6040519080825280601f01601f191660200182016040528015612a985781602001600182028036833780820191505090505b5090507f300000000000000000000000000000000000000000000000000000000000000081600081518110612ad057612acf613cf1565b5b60200101907effffffffffffffffffffffffffffffffffffffffffffffffffffffffffffff1916908160001a9053507f780000000000000000000000000000000000000000000000000000000000000081600181518110612b3457612b33613cf1565b5b60200101907effffffffffffffffffffffffffffffffffffffffffffffffffffffffffffff1916908160001a90535060006001846002612b749190614830565b612b7e9190613f4e565b90505b6001811115612c1e577f3031323334353637383961626364656600000000000000000000000000000000600f861660108110612bc057612bbf613cf1565b5b1a60f81b828281518110612bd757612bd6613cf1565b5b60200101907effffffffffffffffffffffffffffffffffffffffffffffffffffffffffffff1916908160001a905350600485901c945080612c179061488a565b9050612b81565b5060008414612c62576040517f08c379a0000000000000000000000000000000000000000000000000000000008152600401612c5990614900565b60405180910390fd5b8091505092915050565b505050505050565b6000808273ffffffffffffffffffffffffffffffffffffffff163b119050919050565b828054612ca390613b09565b90600052602060002090601f016020900481019282612cc55760008555612d0c565b82601f10612cde57805160ff1916838001178555612d0c565b82800160010185558215612d0c579182015b82811115612d0b578251825591602001919060010190612cf0565b5b509050612d199190612d1d565b5090565b5b80821115612d36576000816000905550600101612d1e565b5090565b6000604051905090565b600080fd5b600080fd5b600073ffffffffffffffffffffffffffffffffffffffff82169050919050565b6000612d7982612d4e565b9050919050565b612d8981612d6e565b8114612d9457600080fd5b50565b600081359050612da681612d80565b92915050565b6000819050919050565b612dbf81612dac565b8114612dca57600080fd5b50565b600081359050612ddc81612db6565b92915050565b60008060408385031215612df957612df8612d44565b5b6000612e0785828601612d97565b9250506020612e1885828601612dcd565b9150509250929050565b612e2b81612dac565b82525050565b6000602082019050612e466000830184612e22565b92915050565b60007fffffffff0000000000000000000000000000000000000000000000000000000082169050919050565b612e8181612e4c565b8114612e8c57600080fd5b50565b600081359050612e9e81612e78565b92915050565b600060208284031215612eba57612eb9612d44565b5b6000612ec884828501612e8f565b91505092915050565b60008115159050919050565b612ee681612ed1565b82525050565b6000602082019050612f016000830184612edd565b92915050565b600080fd5b600080fd5b6000601f19601f8301169050919050565b7f4e487b7100000000000000000000000000000000000000000000000000000000600052604160045260246000fd5b612f5a82612f11565b810181811067ffffffffffffffff82111715612f7957612f78612f22565b5b80604052505050565b6000612f8c612d3a565b9050612f988282612f51565b919050565b600067ffffffffffffffff821115612fb857612fb7612f22565b5b612fc182612f11565b9050602081019050919050565b82818337600083830152505050565b6000612ff0612feb84612f9d565b612f82565b90508281526020810184848401111561300c5761300b612f0c565b5b613017848285612fce565b509392505050565b600082601f83011261303457613033612f07565b5b8135613044848260208601612fdd565b91505092915050565b60006020828403121561306357613062612d44565b5b600082013567ffffffffffffffff81111561308157613080612d49565b5b61308d8482850161301f565b91505092915050565b600081519050919050565b600082825260208201905092915050565b60005b838110156130d05780820151818401526020810190506130b5565b838111156130df576000848401525b50505050565b60006130f082613096565b6130fa81856130a1565b935061310a8185602086016130b2565b61311381612f11565b840191505092915050565b6000602082019050818103600083015261313881846130e5565b905092915050565b60006020828403121561315657613155612d44565b5b600061316484828501612dcd565b91505092915050565b600067ffffffffffffffff82111561318857613187612f22565b5b602082029050602081019050919050565b600080fd5b60006131b16131ac8461316d565b612f82565b905080838252602082019050602084028301858111156131d4576131d3613199565b5b835b818110156131fd57806131e98882612dcd565b8452602084019350506020810190506131d6565b5050509392505050565b600082601f83011261321c5761321b612f07565b5b813561322c84826020860161319e565b91505092915050565b600067ffffffffffffffff8211156132505761324f612f22565b5b61325982612f11565b9050602081019050919050565b600061327961327484613235565b612f82565b90508281526020810184848401111561329557613294612f0c565b5b6132a0848285612fce565b509392505050565b600082601f8301126132bd576132bc612f07565b5b81356132cd848260208601613266565b91505092915050565b600080600080608085870312156132f0576132ef612d44565b5b60006132fe87828801612d97565b945050602085013567ffffffffffffffff81111561331f5761331e612d49565b5b61332b87828801613207565b935050604085013567ffffffffffffffff81111561334c5761334b612d49565b5b61335887828801613207565b925050606085013567ffffffffffffffff81111561337957613378612d49565b5b613385878288016132a8565b91505092959194509250565b6000819050919050565b6133a481613391565b81146133af57600080fd5b50565b6000813590506133c18161339b565b92915050565b6000602082840312156133dd576133dc612d44565b5b60006133eb848285016133b2565b91505092915050565b6133fd81613391565b82525050565b600060208201905061341860008301846133f4565b92915050565b600080600080600060a0868803121561343a57613439612d44565b5b600061344888828901612d97565b955050602061345988828901612d97565b945050604086013567ffffffffffffffff81111561347a57613479612d49565b5b61348688828901613207565b935050606086013567ffffffffffffffff8111156134a7576134a6612d49565b5b6134b388828901613207565b925050608086013567ffffffffffffffff8111156134d4576134d3612d49565b5b6134e0888289016132a8565b9150509295509295909350565b6000806040838503121561350457613503612d44565b5b6000613512858286016133b2565b925050602061352385828601612d97565b9150509250929050565b600067ffffffffffffffff82111561354857613547612f22565b5b602082029050602081019050919050565b600061356c6135678461352d565b612f82565b9050808382526020820190506020840283018581111561358f5761358e613199565b5b835b818110156135b857806135a48882612d97565b845260208401935050602081019050613591565b5050509392505050565b600082601f8301126135d7576135d6612f07565b5b81356135e7848260208601613559565b91505092915050565b6000806040838503121561360757613606612d44565b5b600083013567ffffffffffffffff81111561362557613624612d49565b5b613631858286016135c2565b925050602083013567ffffffffffffffff81111561365257613651612d49565b5b61365e85828601613207565b9150509250929050565b600081519050919050565b600082825260208201905092915050565b6000819050602082019050919050565b61369d81612dac565b82525050565b60006136af8383613694565b60208301905092915050565b6000602082019050919050565b60006136d382613668565b6136dd8185613673565b93506136e883613684565b8060005b8381101561371957815161370088826136a3565b975061370b836136bb565b9250506001810190506136ec565b5085935050505092915050565b6000602082019050818103600083015261374081846136c8565b905092915050565b60008060006060848603121561376157613760612d44565b5b600061376f86828701612d97565b935050602084013567ffffffffffffffff8111156137905761378f612d49565b5b61379c86828701613207565b925050604084013567ffffffffffffffff8111156137bd576137bc612d49565b5b6137c986828701613207565b9150509250925092565b600080600080608085870312156137ed576137ec612d44565b5b60006137fb87828801612d97565b945050602061380c87828801612dcd565b935050604061381d87828801612dcd565b925050606085013567ffffffffffffffff81111561383e5761383d612d49565b5b61384a878288016132a8565b91505092959194509250565b61385f81612ed1565b811461386a57600080fd5b50565b60008135905061387c81613856565b92915050565b6000806040838503121561389957613898612d44565b5b60006138a785828601612d97565b92505060206138b88582860161386d565b9150509250929050565b600080604083850312156138d9576138d8612d44565b5b60006138e785828601612d97565b92505060206138f885828601612d97565b9150509250929050565b600080600080600060a0868803121561391e5761391d612d44565b5b600061392c88828901612d97565b955050602061393d88828901612d97565b945050604061394e88828901612dcd565b935050606061395f88828901612dcd565b925050608086013567ffffffffffffffff8111156139805761397f612d49565b5b61398c888289016132a8565b9150509295509295909350565b6000806000606084860312156139b2576139b1612d44565b5b60006139c086828701612d97565b93505060206139d186828701612dcd565b92505060406139e286828701612dcd565b9150509250925092565b60008060408385031215613a0357613a02612d44565b5b600083013567ffffffffffffffff811115613a2157613a20612d49565b5b613a2d858286016135c2565b9250506020613a3e85828601612dcd565b9150509250929050565b7f455243313135353a2061646472657373207a65726f206973206e6f742061207660008201527f616c6964206f776e657200000000000000000000000000000000000000000000602082015250565b6000613aa4602a836130a1565b9150613aaf82613a48565b604082019050919050565b60006020820190508181036000830152613ad381613a97565b9050919050565b7f4e487b7100000000000000000000000000000000000000000000000000000000600052602260045260246000fd5b60006002820490506001821680613b2157607f821691505b60208210811415613b3557613b34613ada565b5b50919050565b7f455243313135353a2063616c6c6572206973206e6f7420746f6b656e206f776e60008201527f6572206e6f7220617070726f7665640000000000000000000000000000000000602082015250565b6000613b97602f836130a1565b9150613ba282613b3b565b604082019050919050565b60006020820190508181036000830152613bc681613b8a565b9050919050565b7f416363657373436f6e74726f6c3a2063616e206f6e6c792072656e6f756e636560008201527f20726f6c657320666f722073656c660000000000000000000000000000000000602082015250565b6000613c29602f836130a1565b9150613c3482613bcd565b604082019050919050565b60006020820190508181036000830152613c5881613c1c565b9050919050565b7f455243313135353a206163636f756e747320616e6420696473206c656e67746860008201527f206d69736d617463680000000000000000000000000000000000000000000000602082015250565b6000613cbb6029836130a1565b9150613cc682613c5f565b604082019050919050565b60006020820190508181036000830152613cea81613cae565b9050919050565b7f4e487b7100000000000000000000000000000000000000000000000000000000600052603260045260246000fd5b7f4e487b7100000000000000000000000000000000000000000000000000000000600052601160045260246000fd5b6000613d5a82612dac565b91507fffffffffffffffffffffffffffffffffffffffffffffffffffffffffffffffff821415613d8d57613d8c613d20565b5b600182019050919050565b7f5468697320746f6b656e206973205342542c20736f20746869732063616e206e60008201527f6f7420617070726f76652e000000000000000000000000000000000000000000602082015250565b6000613df4602b836130a1565b9150613dff82613d98565b604082019050919050565b60006020820190508181036000830152613e2381613de7565b9050919050565b7f455243313135353a206d696e7420746f20746865207a65726f2061646472657360008201527f7300000000000000000000000000000000000000000000000000000000000000602082015250565b6000613e866021836130a1565b9150613e9182613e2a565b604082019050919050565b60006020820190508181036000830152613eb581613e79565b9050919050565b7f455243313135353a2069647320616e6420616d6f756e7473206c656e6774682060008201527f6d69736d61746368000000000000000000000000000000000000000000000000602082015250565b6000613f186028836130a1565b9150613f2382613ebc565b604082019050919050565b60006020820190508181036000830152613f4781613f0b565b9050919050565b6000613f5982612dac565b9150613f6483612dac565b9250827fffffffffffffffffffffffffffffffffffffffffffffffffffffffffffffffff03821115613f9957613f98613d20565b5b828201905092915050565b60006040820190508181036000830152613fbe81856136c8565b90508181036020830152613fd281846136c8565b90509392505050565b7f455243313135353a207472616e7366657220746f20746865207a65726f20616460008201527f6472657373000000000000000000000000000000000000000000000000000000602082015250565b60006140376025836130a1565b915061404282613fdb565b604082019050919050565b600060208201905081810360008301526140668161402a565b9050919050565b7f455243313135353a20696e73756666696369656e742062616c616e636520666f60008201527f72207472616e7366657200000000000000000000000000000000000000000000602082015250565b60006140c9602a836130a1565b91506140d48261406d565b604082019050919050565b600060208201905081810360008301526140f8816140bc565b9050919050565b61410881612d6e565b82525050565b600060208201905061412360008301846140ff565b92915050565b7f455243313135353a206275726e2066726f6d20746865207a65726f206164647260008201527f6573730000000000000000000000000000000000000000000000000000000000602082015250565b60006141856023836130a1565b915061419082614129565b604082019050919050565b600060208201905081810360008301526141b481614178565b9050919050565b7f455243313135353a206275726e20616d6f756e7420657863656564732062616c60008201527f616e636500000000000000000000000000000000000000000000000000000000602082015250565b60006142176024836130a1565b9150614222826141bb565b604082019050919050565b600060208201905081810360008301526142468161420a565b9050919050565b60006040820190506142626000830185612e22565b61426f6020830184612e22565b9392505050565b600081905092915050565b7f416363657373436f6e74726f6c3a206163636f756e7420000000000000000000600082015250565b60006142b7601783614276565b91506142c282614281565b601782019050919050565b60006142d882613096565b6142e28185614276565b93506142f28185602086016130b2565b80840191505092915050565b7f206973206d697373696e6720726f6c6520000000000000000000000000000000600082015250565b6000614334601183614276565b915061433f826142fe565b601182019050919050565b6000614355826142aa565b915061436182856142cd565b915061436c82614327565b915061437882846142cd565b91508190509392505050565b7f5468697320746f6b656e206973205342542c20736f20746869732063616e206e60008201527f6f74207472616e736665722e0000000000000000000000000000000000000000602082015250565b60006143e0602c836130a1565b91506143eb82614384565b604082019050919050565b6000602082019050818103600083015261440f816143d3565b9050919050565b600081519050919050565b600082825260208201905092915050565b600061443d82614416565b6144478185614421565b93506144578185602086016130b2565b61446081612f11565b840191505092915050565b600060a08201905061448060008301886140ff565b61448d60208301876140ff565b818103604083015261449f81866136c8565b905081810360608301526144b381856136c8565b905081810360808301526144c78184614432565b90509695505050505050565b6000815190506144e281612e78565b92915050565b6000602082840312156144fe576144fd612d44565b5b600061450c848285016144d3565b91505092915050565b60008160e01c9050919050565b600060033d11156145415760046000803e61453e600051614515565b90505b90565b600060443d1015614554576145d7565b61455c612d3a565b60043d036004823e80513d602482011167ffffffffffffffff821117156145845750506145d7565b808201805167ffffffffffffffff8111156145a257505050506145d7565b80602083010160043d0385018111156145bf5750505050506145d7565b6145ce82602001850186612f51565b82955050505050505b90565b7f455243313135353a207472616e7366657220746f206e6f6e204552433131353560008201527f526563656976657220696d706c656d656e746572000000000000000000000000602082015250565b60006146366034836130a1565b9150614641826145da565b604082019050919050565b6000602082019050818103600083015261466581614629565b9050919050565b7f455243313135353a204552433131353552656365697665722072656a6563746560008201527f6420746f6b656e73000000000000000000000000000000000000000000000000602082015250565b60006146c86028836130a1565b91506146d38261466c565b604082019050919050565b600060208201905081810360008301526146f7816146bb565b9050919050565b7f5061757361626c653a206e6f7420706175736564000000000000000000000000600082015250565b60006147346014836130a1565b915061473f826146fe565b602082019050919050565b6000602082019050818103600083015261476381614727565b9050919050565b600060a08201905061477f60008301886140ff565b61478c60208301876140ff565b6147996040830186612e22565b6147a66060830185612e22565b81810360808301526147b88184614432565b90509695505050505050565b7f5061757361626c653a2070617573656400000000000000000000000000000000600082015250565b60006147fa6010836130a1565b9150614805826147c4565b602082019050919050565b60006020820190508181036000830152614829816147ed565b9050919050565b600061483b82612dac565b915061484683612dac565b9250817fffffffffffffffffffffffffffffffffffffffffffffffffffffffffffffffff048311821515161561487f5761487e613d20565b5b828202905092915050565b600061489582612dac565b915060008214156148a9576148a8613d20565b5b600182039050919050565b7f537472696e67733a20686578206c656e67746820696e73756666696369656e74600082015250565b60006148ea6020836130a1565b91506148f5826148b4565b602082019050919050565b60006020820190508181036000830152614919816148dd565b905091905056fea2646970667358221220d64ba14c7a5566657e39e16806e27b2d9295623c68a06fad90f489b78cbc01c164736f6c63430008090033",
  "linkReferences": {},
  "deployedLinkReferences": {}
}