{
  "_format": "hh-sol-artifact-1",
  "contractName": "MyEpicNFT",
  "sourceName": "contracts/MyEpicNFT.sol",
  "abi": [
    {
      "inputs": [],
      "stateMutability": "nonpayable",
      "type": "constructor"
    },
    {
      "anonymous": false,
      "inputs": [
        {
          "indexed": true,
          "internalType": "address",
          "name": "owner",
          "type": "address"
        },
        {
          "indexed": true,
          "internalType": "address",
          "name": "approved",
          "type": "address"
        },
        {
          "indexed": true,
          "internalType": "uint256",
          "name": "tokenId",
          "type": "uint256"
        }
      ],
      "name": "Approval",
      "type": "event"
    },
    {
      "anonymous": false,
      "inputs": [
        {
          "indexed": true,
          "internalType": "address",
          "name": "owner",
          "type": "address"
        },
        {
          "indexed": true,
          "internalType": "address",
          "name": "operator",
          "type": "address"
        },
        {
          "indexed": false,
          "internalType": "bool",
          "name": "approved",
          "type": "bool"
        }
      ],
      "name": "ApprovalForAll",
      "type": "event"
    },
    {
      "anonymous": false,
      "inputs": [
        {
          "indexed": false,
          "internalType": "address",
          "name": "sender",
          "type": "address"
        },
        {
          "indexed": false,
          "internalType": "uint256",
          "name": "tokenId",
          "type": "uint256"
        }
      ],
      "name": "NewEpicNFTMinted",
      "type": "event"
    },
    {
      "anonymous": false,
      "inputs": [
        {
          "indexed": true,
          "internalType": "address",
          "name": "from",
          "type": "address"
        },
        {
          "indexed": true,
          "internalType": "address",
          "name": "to",
          "type": "address"
        },
        {
          "indexed": true,
          "internalType": "uint256",
          "name": "tokenId",
          "type": "uint256"
        }
      ],
      "name": "Transfer",
      "type": "event"
    },
    {
      "inputs": [
        {
          "internalType": "address",
          "name": "to",
          "type": "address"
        },
        {
          "internalType": "uint256",
          "name": "tokenId",
          "type": "uint256"
        }
      ],
      "name": "approve",
      "outputs": [],
      "stateMutability": "nonpayable",
      "type": "function"
    },
    {
      "inputs": [
        {
          "internalType": "address",
          "name": "owner",
          "type": "address"
        }
      ],
      "name": "balanceOf",
      "outputs": [
        {
          "internalType": "uint256",
          "name": "",
          "type": "uint256"
        }
      ],
      "stateMutability": "view",
      "type": "function"
    },
    {
      "inputs": [
        {
          "internalType": "uint256",
          "name": "tokenId",
          "type": "uint256"
        }
      ],
      "name": "getApproved",
      "outputs": [
        {
          "internalType": "address",
          "name": "",
          "type": "address"
        }
      ],
      "stateMutability": "view",
      "type": "function"
    },
    {
      "inputs": [
        {
          "internalType": "address",
          "name": "owner",
          "type": "address"
        },
        {
          "internalType": "address",
          "name": "operator",
          "type": "address"
        }
      ],
      "name": "isApprovedForAll",
      "outputs": [
        {
          "internalType": "bool",
          "name": "",
          "type": "bool"
        }
      ],
      "stateMutability": "view",
      "type": "function"
    },
    {
      "inputs": [],
      "name": "makeAnEpicNFT",
      "outputs": [],
      "stateMutability": "nonpayable",
      "type": "function"
    },
    {
      "inputs": [],
      "name": "name",
      "outputs": [
        {
          "internalType": "string",
          "name": "",
          "type": "string"
        }
      ],
      "stateMutability": "view",
      "type": "function"
    },
    {
      "inputs": [
        {
          "internalType": "uint256",
          "name": "tokenId",
          "type": "uint256"
        }
      ],
      "name": "ownerOf",
      "outputs": [
        {
          "internalType": "address",
          "name": "",
          "type": "address"
        }
      ],
      "stateMutability": "view",
      "type": "function"
    },
    {
      "inputs": [
        {
          "internalType": "uint256",
          "name": "tokenId",
          "type": "uint256"
        }
      ],
      "name": "pickRandomFirstWord",
      "outputs": [
        {
          "internalType": "string",
          "name": "",
          "type": "string"
        }
      ],
      "stateMutability": "view",
      "type": "function"
    },
    {
      "inputs": [
        {
          "internalType": "uint256",
          "name": "tokenId",
          "type": "uint256"
        }
      ],
      "name": "pickRandomSecondWord",
      "outputs": [
        {
          "internalType": "string",
          "name": "",
          "type": "string"
        }
      ],
      "stateMutability": "view",
      "type": "function"
    },
    {
      "inputs": [
        {
          "internalType": "uint256",
          "name": "tokenId",
          "type": "uint256"
        }
      ],
      "name": "pickRandomThirdWord",
      "outputs": [
        {
          "internalType": "string",
          "name": "",
          "type": "string"
        }
      ],
      "stateMutability": "view",
      "type": "function"
    },
    {
      "inputs": [
        {
          "internalType": "address",
          "name": "from",
          "type": "address"
        },
        {
          "internalType": "address",
          "name": "to",
          "type": "address"
        },
        {
          "internalType": "uint256",
          "name": "tokenId",
          "type": "uint256"
        }
      ],
      "name": "safeTransferFrom",
      "outputs": [],
      "stateMutability": "nonpayable",
      "type": "function"
    },
    {
      "inputs": [
        {
          "internalType": "address",
          "name": "from",
          "type": "address"
        },
        {
          "internalType": "address",
          "name": "to",
          "type": "address"
        },
        {
          "internalType": "uint256",
          "name": "tokenId",
          "type": "uint256"
        },
        {
          "internalType": "bytes",
          "name": "data",
          "type": "bytes"
        }
      ],
      "name": "safeTransferFrom",
      "outputs": [],
      "stateMutability": "nonpayable",
      "type": "function"
    },
    {
      "inputs": [
        {
          "internalType": "address",
          "name": "operator",
          "type": "address"
        },
        {
          "internalType": "bool",
          "name": "approved",
          "type": "bool"
        }
      ],
      "name": "setApprovalForAll",
      "outputs": [],
      "stateMutability": "nonpayable",
      "type": "function"
    },
    {
      "inputs": [
        {
          "internalType": "bytes4",
          "name": "interfaceId",
          "type": "bytes4"
        }
      ],
      "name": "supportsInterface",
      "outputs": [
        {
          "internalType": "bool",
          "name": "",
          "type": "bool"
        }
      ],
      "stateMutability": "view",
      "type": "function"
    },
    {
      "inputs": [],
      "name": "symbol",
      "outputs": [
        {
          "internalType": "string",
          "name": "",
          "type": "string"
        }
      ],
      "stateMutability": "view",
      "type": "function"
    },
    {
      "inputs": [
        {
          "internalType": "uint256",
          "name": "tokenId",
          "type": "uint256"
        }
      ],
      "name": "tokenURI",
      "outputs": [
        {
          "internalType": "string",
          "name": "",
          "type": "string"
        }
      ],
      "stateMutability": "view",
      "type": "function"
    },
    {
      "inputs": [
        {
          "internalType": "address",
          "name": "from",
          "type": "address"
        },
        {
          "internalType": "address",
          "name": "to",
          "type": "address"
        },
        {
          "internalType": "uint256",
          "name": "tokenId",
          "type": "uint256"
        }
      ],
      "name": "transferFrom",
      "outputs": [],
      "stateMutability": "nonpayable",
      "type": "function"
    }
  ],
  "bytecode": "0x608060405260405180610160016040528061012f81526020016200469c61012f913960089080519060200190620000389291906200067e565b506040518060c001604052806040518060400160405280600481526020017f457069630000000000000000000000000000000000000000000000000000000081525081526020016040518060400160405280600981526020017f46616e746173746963000000000000000000000000000000000000000000000081525081526020016040518060400160405280600581526020017f437275646500000000000000000000000000000000000000000000000000000081525081526020016040518060400160405280600581526020017f4372617a7900000000000000000000000000000000000000000000000000000081525081526020016040518060400160405280600a81526020017f4879737465726963616c0000000000000000000000000000000000000000000081525081526020016040518060400160405280600581526020017f4772616e640000000000000000000000000000000000000000000000000000008152508152506009906006620001b69291906200070f565b506040518060c001604052806040518060400160405280600481526020017f4d6574610000000000000000000000000000000000000000000000000000000081525081526020016040518060400160405280600481526020017f4c6976650000000000000000000000000000000000000000000000000000000081525081526020016040518060400160405280600381526020017f506f70000000000000000000000000000000000000000000000000000000000081525081526020016040518060400160405280600481526020017f437574650000000000000000000000000000000000000000000000000000000081525081526020016040518060400160405280600581526020017f537765657400000000000000000000000000000000000000000000000000000081525081526020016040518060400160405280600381526020017f486f740000000000000000000000000000000000000000000000000000000000815250815250600a906006620003349291906200070f565b506040518060c001604052806040518060400160405280600681526020017f4b697474656e000000000000000000000000000000000000000000000000000081525081526020016040518060400160405280600581526020017f507570707900000000000000000000000000000000000000000000000000000081525081526020016040518060400160405280600681526020017f4d6f6e6b6579000000000000000000000000000000000000000000000000000081525081526020016040518060400160405280600481526020017f426972640000000000000000000000000000000000000000000000000000000081525081526020016040518060400160405280600581526020017f50616e646100000000000000000000000000000000000000000000000000000081525081526020016040518060400160405280600881526020017f456c657068616e74000000000000000000000000000000000000000000000000815250815250600b906006620004b29291906200070f565b50348015620004c057600080fd5b506040518060400160405280601181526020017f4b4c41425f574542335f4d454554494e470000000000000000000000000000008152506040518060400160405280600881526020017f574542334d4545540000000000000000000000000000000000000000000000008152508160009080519060200190620005459291906200067e565b5080600190805190602001906200055e9291906200067e565b505050620005ac6040518060400160405280601881526020017f54686973206973206d79204e465420636f6e74726163742e0000000000000000815250620005b260201b620011601760201c565b62000930565b6200065281604051602401620005c9919062000844565b6040516020818303038152906040527f41304fac000000000000000000000000000000000000000000000000000000007bffffffffffffffffffffffffffffffffffffffffffffffffffffffff19166020820180517bffffffffffffffffffffffffffffffffffffffffffffffffffffffff83818316178352505050506200065560201b60201c565b50565b60008151905060006a636f6e736f6c652e6c6f679050602083016000808483855afa5050505050565b8280546200068c90620008ba565b90600052602060002090601f016020900481019282620006b05760008555620006fc565b82601f10620006cb57805160ff1916838001178555620006fc565b82800160010185558215620006fc579182015b82811115620006fb578251825591602001919060010190620006de565b5b5090506200070b919062000776565b5090565b82805482825590600052602060002090810192821562000763579160200282015b8281111562000762578251829080519060200190620007519291906200067e565b509160200191906001019062000730565b5b50905062000772919062000795565b5090565b5b808211156200079157600081600090555060010162000777565b5090565b5b80821115620007b95760008181620007af9190620007bd565b5060010162000796565b5090565b508054620007cb90620008ba565b6000825580601f10620007df575062000800565b601f016020900490600052602060002090810190620007ff919062000776565b5b50565b6000620008108262000868565b6200081c818562000873565b93506200082e81856020860162000884565b62000839816200091f565b840191505092915050565b6000602082019050818103600083015262000860818462000803565b905092915050565b600081519050919050565b600082825260208201905092915050565b60005b83811015620008a457808201518184015260208101905062000887565b83811115620008b4576000848401525b50505050565b60006002820490506001821680620008d357607f821691505b60208210811415620008ea57620008e9620008f0565b5b50919050565b7f4e487b7100000000000000000000000000000000000000000000000000000000600052602260045260246000fd5b6000601f19601f8301169050919050565b613d5c80620009406000396000f3fe608060405234801561001057600080fd5b506004361061010b5760003560e01c806370a08231116100a2578063b88d4fde11610071578063b88d4fde146102dc578063c575757a146102f8578063c87b56dd14610328578063de9d132f14610358578063e985e9c5146103625761010b565b806370a082311461024257806395d89b4114610272578063a22cb46514610290578063b187301f146102ac5761010b565b806323b872dd116100de57806323b872dd146101aa5780632de38d68146101c657806342842e0e146101f65780636352211e146102125761010b565b806301ffc9a71461011057806306fdde0314610140578063081812fc1461015e578063095ea7b31461018e575b600080fd5b61012a600480360381019061012591906127b9565b610392565b6040516101379190612e70565b60405180910390f35b610148610474565b6040516101559190612e8b565b60405180910390f35b6101786004803603810190610173919061280b565b610506565b6040516101859190612de0565b60405180910390f35b6101a860048036038101906101a3919061277d565b61054c565b005b6101c460048036038101906101bf9190612677565b610664565b005b6101e060048036038101906101db919061280b565b6106c4565b6040516101ed9190612e8b565b60405180910390f35b610210600480360381019061020b9190612677565b610860565b005b61022c6004803603810190610227919061280b565b610880565b6040516102399190612de0565b60405180910390f35b61025c60048036038101906102579190612612565b610932565b604051610269919061309b565b60405180910390f35b61027a6109ea565b6040516102879190612e8b565b60405180910390f35b6102aa60048036038101906102a59190612741565b610a7c565b005b6102c660048036038101906102c1919061280b565b610a92565b6040516102d39190612e8b565b60405180910390f35b6102f660048036038101906102f191906126c6565b610bb0565b005b610312600480360381019061030d919061280b565b610c12565b60405161031f9190612e8b565b60405180910390f35b610342600480360381019061033d919061280b565b610d30565b60405161034f9190612e8b565b60405180910390f35b610360610e43565b005b61037c6004803603810190610377919061263b565b6110cc565b6040516103899190612e70565b60405180910390f35b60007f80ac58cd000000000000000000000000000000000000000000000000000000007bffffffffffffffffffffffffffffffffffffffffffffffffffffffff1916827bffffffffffffffffffffffffffffffffffffffffffffffffffffffff1916148061045d57507f5b5e139f000000000000000000000000000000000000000000000000000000007bffffffffffffffffffffffffffffffffffffffffffffffffffffffff1916827bffffffffffffffffffffffffffffffffffffffffffffffffffffffff1916145b8061046d575061046c826111f9565b5b9050919050565b606060008054610483906135e2565b80601f01602080910402602001604051908101604052809291908181526020018280546104af906135e2565b80156104fc5780601f106104d1576101008083540402835291602001916104fc565b820191906000526020600020905b8154815290600101906020018083116104df57829003601f168201915b5050505050905090565b600061051182611263565b6004600083815260200190815260200160002060009054906101000a900473ffffffffffffffffffffffffffffffffffffffff169050919050565b600061055782610880565b90508073ffffffffffffffffffffffffffffffffffffffff168373ffffffffffffffffffffffffffffffffffffffff1614156105c8576040517f08c379a00000000000000000000000000000000000000000000000000000000081526004016105bf9061305b565b60405180910390fd5b8073ffffffffffffffffffffffffffffffffffffffff166105e76112ae565b73ffffffffffffffffffffffffffffffffffffffff1614806106165750610615816106106112ae565b6110cc565b5b610655576040517f08c379a000000000000000000000000000000000000000000000000000000000815260040161064c90612ffb565b60405180910390fd5b61065f83836112b6565b505050565b61067561066f6112ae565b8261136f565b6106b4576040517f08c379a00000000000000000000000000000000000000000000000000000000081526004016106ab9061307b565b60405180910390fd5b6106bf838383611404565b505050565b606060006106f86106d48461166b565b6040516020016106e49190612d9c565b604051602081830303815290604052611818565b90506107396040518060400160405280600b81526020017f72616e6420736565643a200000000000000000000000000000000000000000008152508261184b565b6009805490508161074a919061368e565b905061078b6040518060400160405280601181526020017f72616e6420666972737420776f72643a200000000000000000000000000000008152508261184b565b600981815481106107c5577f4e487b7100000000000000000000000000000000000000000000000000000000600052603260045260246000fd5b9060005260206000200180546107da906135e2565b80601f0160208091040260200160405190810160405280929190818152602001828054610806906135e2565b80156108535780601f1061082857610100808354040283529160200191610853565b820191906000526020600020905b81548152906001019060200180831161083657829003601f168201915b5050505050915050919050565b61087b83838360405180602001604052806000815250610bb0565b505050565b6000806002600084815260200190815260200160002060009054906101000a900473ffffffffffffffffffffffffffffffffffffffff169050600073ffffffffffffffffffffffffffffffffffffffff168173ffffffffffffffffffffffffffffffffffffffff161415610929576040517f08c379a00000000000000000000000000000000000000000000000000000000081526004016109209061303b565b60405180910390fd5b80915050919050565b60008073ffffffffffffffffffffffffffffffffffffffff168273ffffffffffffffffffffffffffffffffffffffff1614156109a3576040517f08c379a000000000000000000000000000000000000000000000000000000000815260040161099a90612fbb565b60405180910390fd5b600360008373ffffffffffffffffffffffffffffffffffffffff1673ffffffffffffffffffffffffffffffffffffffff168152602001908152602001600020549050919050565b6060600180546109f9906135e2565b80601f0160208091040260200160405190810160405280929190818152602001828054610a25906135e2565b8015610a725780601f10610a4757610100808354040283529160200191610a72565b820191906000526020600020905b815481529060010190602001808311610a5557829003601f168201915b5050505050905090565b610a8e610a876112ae565b83836118e7565b5050565b60606000610ac6610aa28461166b565b604051602001610ab29190612d35565b604051602081830303815290604052611818565b9050600a8054905081610ad9919061368e565b9050600a8181548110610b15577f4e487b7100000000000000000000000000000000000000000000000000000000600052603260045260246000fd5b906000526020600020018054610b2a906135e2565b80601f0160208091040260200160405190810160405280929190818152602001828054610b56906135e2565b8015610ba35780601f10610b7857610100808354040283529160200191610ba3565b820191906000526020600020905b815481529060010190602001808311610b8657829003601f168201915b5050505050915050919050565b610bc1610bbb6112ae565b8361136f565b610c00576040517f08c379a0000000000000000000000000000000000000000000000000000000008152600401610bf79061307b565b60405180910390fd5b610c0c84848484611a54565b50505050565b60606000610c46610c228461166b565b604051602001610c329190612d13565b604051602081830303815290604052611818565b9050600b8054905081610c59919061368e565b9050600b8181548110610c95577f4e487b7100000000000000000000000000000000000000000000000000000000600052603260045260246000fd5b906000526020600020018054610caa906135e2565b80601f0160208091040260200160405190810160405280929190818152602001828054610cd6906135e2565b8015610d235780601f10610cf857610100808354040283529160200191610d23565b820191906000526020600020905b815481529060010190602001808311610d0657829003601f168201915b5050505050915050919050565b6060610d3b82611263565b6000600660008481526020019081526020016000208054610d5b906135e2565b80601f0160208091040260200160405190810160405280929190818152602001828054610d87906135e2565b8015610dd45780601f10610da957610100808354040283529160200191610dd4565b820191906000526020600020905b815481529060010190602001808311610db757829003601f168201915b505050505090506000610de5611ab0565b9050600081511415610dfb578192505050610e3e565b600082511115610e30578082604051602001610e18929190612c79565b60405160208183030381529060405292505050610e3e565b610e3984611ac7565b925050505b919050565b6000610e4f6007611b2f565b90506000806000610e5f42611b3d565b8093508194508295505050506000610e768461166b565b90506000610e838461166b565b90506000610e908461166b565b90506000838383604051602001610ea993929190612c9d565b60405160208183030381529060405290506000600882604051602001610ed0929190612ce4565b6040516020818303038152906040529050610f1f6040518060400160405280601581526020017f0a2d2d2d2d2d2d2d2d2d2d2d2d2d2d2d2d2d2d2d2d0000000000000000000000815250611160565b610f2881611160565b610f666040518060400160405280601581526020017f2d2d2d2d2d2d2d2d2d2d2d2d2d2d2d2d2d2d2d2d0a0000000000000000000000815250611160565b6000610f9a83610f7584611b6c565b604051602001610f86929190612d57565b604051602081830303815290604052611b6c565b9050600081604051602001610faf9190612dbe565b6040516020818303038152906040529050610ffe6040518060400160405280601581526020017f0a2d2d2d2d2d20546f6b656e20555249202d2d2d2d0000000000000000000000815250611160565b61100781611160565b6110456040518060400160405280601581526020017f2d2d2d2d2d2d2d2d2d2d2d2d2d2d2d2d2d2d2d2d0a0000000000000000000000815250611160565b61104f338c611d2a565b6110598b82611d48565b61107c604051806060016040528060258152602001613cc2602591398c33611dbc565b6110866007611e5b565b7febb98688741ffa4c7589bf325de30cf7becb63de567842e1ccdb6cb949fdc82c338c6040516110b7929190612e47565b60405180910390a15050505050505050505050565b6000600560008473ffffffffffffffffffffffffffffffffffffffff1673ffffffffffffffffffffffffffffffffffffffff16815260200190815260200160002060008373ffffffffffffffffffffffffffffffffffffffff1673ffffffffffffffffffffffffffffffffffffffff16815260200190815260200160002060009054906101000a900460ff16905092915050565b6111f6816040516024016111749190612e8b565b6040516020818303038152906040527f41304fac000000000000000000000000000000000000000000000000000000007bffffffffffffffffffffffffffffffffffffffffffffffffffffffff19166020820180517bffffffffffffffffffffffffffffffffffffffffffffffffffffffff8381831617835250505050611e71565b50565b60007f01ffc9a7000000000000000000000000000000000000000000000000000000007bffffffffffffffffffffffffffffffffffffffffffffffffffffffff1916827bffffffffffffffffffffffffffffffffffffffffffffffffffffffff1916149050919050565b61126c81611e9a565b6112ab576040517f08c379a00000000000000000000000000000000000000000000000000000000081526004016112a29061303b565b60405180910390fd5b50565b600033905090565b816004600083815260200190815260200160002060006101000a81548173ffffffffffffffffffffffffffffffffffffffff021916908373ffffffffffffffffffffffffffffffffffffffff160217905550808273ffffffffffffffffffffffffffffffffffffffff1661132983610880565b73ffffffffffffffffffffffffffffffffffffffff167f8c5be1e5ebec7d5bd14f71427d1e84f3dd0314c0f7b2291e5b200ac8c7c3b92560405160405180910390a45050565b60008061137b83610880565b90508073ffffffffffffffffffffffffffffffffffffffff168473ffffffffffffffffffffffffffffffffffffffff1614806113bd57506113bc81856110cc565b5b806113fb57508373ffffffffffffffffffffffffffffffffffffffff166113e384610506565b73ffffffffffffffffffffffffffffffffffffffff16145b91505092915050565b8273ffffffffffffffffffffffffffffffffffffffff1661142482610880565b73ffffffffffffffffffffffffffffffffffffffff161461147a576040517f08c379a000000000000000000000000000000000000000000000000000000000815260040161147190612f3b565b60405180910390fd5b600073ffffffffffffffffffffffffffffffffffffffff168273ffffffffffffffffffffffffffffffffffffffff1614156114ea576040517f08c379a00000000000000000000000000000000000000000000000000000000081526004016114e190612f7b565b60405180910390fd5b6114f5838383611f06565b6115006000826112b6565b6001600360008573ffffffffffffffffffffffffffffffffffffffff1673ffffffffffffffffffffffffffffffffffffffff168152602001908152602001600020600082825461155091906134ee565b925050819055506001600360008473ffffffffffffffffffffffffffffffffffffffff1673ffffffffffffffffffffffffffffffffffffffff16815260200190815260200160002060008282546115a791906131f8565b92505081905550816002600083815260200190815260200160002060006101000a81548173ffffffffffffffffffffffffffffffffffffffff021916908373ffffffffffffffffffffffffffffffffffffffff160217905550808273ffffffffffffffffffffffffffffffffffffffff168473ffffffffffffffffffffffffffffffffffffffff167fddf252ad1be2c89b69c2b068fc378daa952ba7f163c4a11628f55a4df523b3ef60405160405180910390a4611666838383611f0b565b505050565b606060008214156116b3576040518060400160405280600181526020017f30000000000000000000000000000000000000000000000000000000000000008152509050611813565b600082905060005b600082146116e55780806116ce90613645565b915050600a826116de91906132b8565b91506116bb565b60008167ffffffffffffffff811115611727577f4e487b7100000000000000000000000000000000000000000000000000000000600052604160045260246000fd5b6040519080825280601f01601f1916602001820160405280156117595781602001600182028036833780820191505090505b5090505b6000851461180c5760018261177291906134ee565b9150600a85611781919061368e565b603061178d91906131f8565b60f81b8183815181106117c9577f4e487b7100000000000000000000000000000000000000000000000000000000600052603260045260246000fd5b60200101907effffffffffffffffffffffffffffffffffffffffffffffffffffffffffffff1916908160001a905350600a8561180591906132b8565b945061175d565b8093505050505b919050565b60008160405160200161182b9190612c62565b6040516020818303038152906040528051906020012060001c9050919050565b6118e38282604051602401611861929190612ead565b6040516020818303038152906040527f9710a9d0000000000000000000000000000000000000000000000000000000007bffffffffffffffffffffffffffffffffffffffffffffffffffffffff19166020820180517bffffffffffffffffffffffffffffffffffffffffffffffffffffffff8381831617835250505050611e71565b5050565b8173ffffffffffffffffffffffffffffffffffffffff168373ffffffffffffffffffffffffffffffffffffffff161415611956576040517f08c379a000000000000000000000000000000000000000000000000000000000815260040161194d90612f9b565b60405180910390fd5b80600560008573ffffffffffffffffffffffffffffffffffffffff1673ffffffffffffffffffffffffffffffffffffffff16815260200190815260200160002060008473ffffffffffffffffffffffffffffffffffffffff1673ffffffffffffffffffffffffffffffffffffffff16815260200190815260200160002060006101000a81548160ff0219169083151502179055508173ffffffffffffffffffffffffffffffffffffffff168373ffffffffffffffffffffffffffffffffffffffff167f17307eab39ab6107e8899845ad3d59bd9653f200f220920489ca2b5937696c3183604051611a479190612e70565b60405180910390a3505050565b611a5f848484611404565b611a6b84848484611f10565b611aaa576040517f08c379a0000000000000000000000000000000000000000000000000000000008152600401611aa190612f1b565b60405180910390fd5b50505050565b606060405180602001604052806000815250905090565b6060611ad282611263565b6000611adc611ab0565b90506000815111611afc5760405180602001604052806000815250611b27565b80611b068461166b565b604051602001611b17929190612c79565b6040516020818303038152906040525b915050919050565b600081600001549050919050565b6000806000611b596201518085611b5491906132b8565b6120a7565b8093508194508295505050509193909250565b60606000825190506000811415611b955760405180602001604052806000815250915050611d25565b60006003600283611ba691906131f8565b611bb091906132b8565b6004611bbc9190613400565b90506000602082611bcd91906131f8565b67ffffffffffffffff811115611c0c577f4e487b7100000000000000000000000000000000000000000000000000000000600052604160045260246000fd5b6040519080825280601f01601f191660200182016040528015611c3e5781602001600182028036833780820191505090505b5090506000604051806060016040528060408152602001613ce7604091399050600181016020830160005b86811015611ce25760038101905062ffffff818a015116603f8160121c168401518060081b905060ff603f83600c1c1686015116810190508060081b905060ff603f8360061c1686015116810190508060081b905060ff603f831686015116810190508060e01b90508084526004840193505050611c69565b506003860660018114611cfc5760028114611d0c57611d17565b613d3d60f01b6002830352611d17565b603d60f81b60018303525b508484525050819450505050505b919050565b611d44828260405180602001604052806000815250612246565b5050565b611d5182611e9a565b611d90576040517f08c379a0000000000000000000000000000000000000000000000000000000008152600401611d8790612fdb565b60405180910390fd5b80600660008481526020019081526020016000209080519060200190611db792919061249e565b505050565b611e56838383604051602401611dd493929190612edd565b6040516020818303038152906040527fe3849f79000000000000000000000000000000000000000000000000000000007bffffffffffffffffffffffffffffffffffffffffffffffffffffffff19166020820180517bffffffffffffffffffffffffffffffffffffffffffffffffffffffff8381831617835250505050611e71565b505050565b6001816000016000828254019250508190555050565b60008151905060006a636f6e736f6c652e6c6f679050602083016000808483855afa5050505050565b60008073ffffffffffffffffffffffffffffffffffffffff166002600084815260200190815260200160002060009054906101000a900473ffffffffffffffffffffffffffffffffffffffff1673ffffffffffffffffffffffffffffffffffffffff1614159050919050565b505050565b505050565b6000611f318473ffffffffffffffffffffffffffffffffffffffff166122a1565b1561209a578373ffffffffffffffffffffffffffffffffffffffff1663150b7a02611f5a6112ae565b8786866040518563ffffffff1660e01b8152600401611f7c9493929190612dfb565b602060405180830381600087803b158015611f9657600080fd5b505af1925050508015611fc757506040513d601f19601f82011682018060405250810190611fc491906127e2565b60015b61204a573d8060008114611ff7576040519150601f19603f3d011682016040523d82523d6000602084013e611ffc565b606091505b50600081511415612042576040517f08c379a000000000000000000000000000000000000000000000000000000000815260040161203990612f1b565b60405180910390fd5b805181602001fd5b63150b7a0260e01b7bffffffffffffffffffffffffffffffffffffffffffffffffffffffff1916817bffffffffffffffffffffffffffffffffffffffffffffffffffffffff19161491505061209f565b600190505b949350505050565b600080600080849050600062253d8c62010bd9836120c59190613164565b6120cf9190613164565b9050600062023ab18260046120e491906132e9565b6120ee919061324e565b9050600460038262023ab161210391906132e9565b61210d9190613164565b612117919061324e565b82612122919061345a565b9150600062164b096001846121379190613164565b610fa061214491906132e9565b61214e919061324e565b9050601f6004826105b561216291906132e9565b61216c919061324e565b84612177919061345a565b6121819190613164565b9250600061098f84605061219591906132e9565b61219f919061324e565b9050600060508261098f6121b391906132e9565b6121bd919061324e565b856121c8919061345a565b9050600b826121d7919061324e565b945084600c6121e691906132e9565b6002836121f39190613164565b6121fd919061345a565b9150848360318661220e919061345a565b606461221a91906132e9565b6122249190613164565b61222e9190613164565b92508298508197508096505050505050509193909250565b61225083836122c4565b61225d6000848484611f10565b61229c576040517f08c379a000000000000000000000000000000000000000000000000000000000815260040161229390612f1b565b60405180910390fd5b505050565b6000808273ffffffffffffffffffffffffffffffffffffffff163b119050919050565b600073ffffffffffffffffffffffffffffffffffffffff168273ffffffffffffffffffffffffffffffffffffffff161415612334576040517f08c379a000000000000000000000000000000000000000000000000000000000815260040161232b9061301b565b60405180910390fd5b61233d81611e9a565b1561237d576040517f08c379a000000000000000000000000000000000000000000000000000000000815260040161237490612f5b565b60405180910390fd5b61238960008383611f06565b6001600360008473ffffffffffffffffffffffffffffffffffffffff1673ffffffffffffffffffffffffffffffffffffffff16815260200190815260200160002060008282546123d991906131f8565b92505081905550816002600083815260200190815260200160002060006101000a81548173ffffffffffffffffffffffffffffffffffffffff021916908373ffffffffffffffffffffffffffffffffffffffff160217905550808273ffffffffffffffffffffffffffffffffffffffff16600073ffffffffffffffffffffffffffffffffffffffff167fddf252ad1be2c89b69c2b068fc378daa952ba7f163c4a11628f55a4df523b3ef60405160405180910390a461249a60008383611f0b565b5050565b8280546124aa906135e2565b90600052602060002090601f0160209004810192826124cc5760008555612513565b82601f106124e557805160ff1916838001178555612513565b82800160010185558215612513579182015b828111156125125782518255916020019190600101906124f7565b5b5090506125209190612524565b5090565b5b8082111561253d576000816000905550600101612525565b5090565b600061255461254f846130db565b6130b6565b90508281526020810184848401111561256c57600080fd5b6125778482856135a0565b509392505050565b60008135905061258e81613c65565b92915050565b6000813590506125a381613c7c565b92915050565b6000813590506125b881613c93565b92915050565b6000815190506125cd81613c93565b92915050565b600082601f8301126125e457600080fd5b81356125f4848260208601612541565b91505092915050565b60008135905061260c81613caa565b92915050565b60006020828403121561262457600080fd5b60006126328482850161257f565b91505092915050565b6000806040838503121561264e57600080fd5b600061265c8582860161257f565b925050602061266d8582860161257f565b9150509250929050565b60008060006060848603121561268c57600080fd5b600061269a8682870161257f565b93505060206126ab8682870161257f565b92505060406126bc868287016125fd565b9150509250925092565b600080600080608085870312156126dc57600080fd5b60006126ea8782880161257f565b94505060206126fb8782880161257f565b935050604061270c878288016125fd565b925050606085013567ffffffffffffffff81111561272957600080fd5b612735878288016125d3565b91505092959194509250565b6000806040838503121561275457600080fd5b60006127628582860161257f565b925050602061277385828601612594565b9150509250929050565b6000806040838503121561279057600080fd5b600061279e8582860161257f565b92505060206127af858286016125fd565b9150509250929050565b6000602082840312156127cb57600080fd5b60006127d9848285016125a9565b91505092915050565b6000602082840312156127f457600080fd5b6000612802848285016125be565b91505092915050565b60006020828403121561281d57600080fd5b600061282b848285016125fd565b91505092915050565b61283d81613522565b82525050565b61284c81613534565b82525050565b600061285d82613121565b6128678185613137565b93506128778185602086016135af565b6128808161377b565b840191505092915050565b60006128968261312c565b6128a08185613148565b93506128b08185602086016135af565b6128b98161377b565b840191505092915050565b60006128cf8261312c565b6128d98185613159565b93506128e98185602086016135af565b80840191505092915050565b60008154612902816135e2565b61290c8186613159565b9450600182166000811461292757600181146129385761296b565b60ff1983168652818601935061296b565b6129418561310c565b60005b8381101561296357815481890152600182019150602081019050612944565b838801955050505b50505092915050565b6000612981603283613148565b915061298c8261378c565b604082019050919050565b60006129a4602583613148565b91506129af826137db565b604082019050919050565b60006129c7601c83613148565b91506129d28261382a565b602082019050919050565b60006129ea600a83613159565b91506129f582613853565b600a82019050919050565b6000612a0d605d83613159565b9150612a188261387c565b605d82019050919050565b6000612a30602483613148565b9150612a3b826138f1565b604082019050919050565b6000612a53601983613148565b9150612a5e82613940565b602082019050919050565b6000612a76600b83613159565b9150612a8182613969565b600b82019050919050565b6000612a99600d83613159565b9150612aa482613992565b600d82019050919050565b6000612abc602983613148565b9150612ac7826139bb565b604082019050919050565b6000612adf602e83613148565b9150612aea82613a0a565b604082019050919050565b6000612b02600283613159565b9150612b0d82613a59565b600282019050919050565b6000612b25603e83613148565b9150612b3082613a82565b604082019050919050565b6000612b48602083613148565b9150612b5382613ad1565b602082019050919050565b6000612b6b600a83613159565b9150612b7682613afa565b600a82019050919050565b6000612b8e601883613148565b9150612b9982613b23565b602082019050919050565b6000612bb1602183613148565b9150612bbc82613b4c565b604082019050919050565b6000612bd4600a83613159565b9150612bdf82613b9b565b600a82019050919050565b6000612bf7601d83613159565b9150612c0282613bc4565b601d82019050919050565b6000612c1a602e83613148565b9150612c2582613bed565b604082019050919050565b6000612c3d600183613159565b9150612c4882613c3c565b600182019050919050565b612c5c81613596565b82525050565b6000612c6e82846128c4565b915081905092915050565b6000612c8582856128c4565b9150612c9182846128c4565b91508190509392505050565b6000612ca982866128c4565b9150612cb482612c30565b9150612cc082856128c4565b9150612ccb82612c30565b9150612cd782846128c4565b9150819050949350505050565b6000612cf082856128f5565b9150612cfc82846128c4565b9150612d0782612a8c565b91508190509392505050565b6000612d1e826129dd565b9150612d2a82846128c4565b915081905092915050565b6000612d4082612a69565b9150612d4c82846128c4565b915081905092915050565b6000612d6282612b5e565b9150612d6e82856128c4565b9150612d7982612a00565b9150612d8582846128c4565b9150612d9082612af5565b91508190509392505050565b6000612da782612bc7565b9150612db382846128c4565b915081905092915050565b6000612dc982612bea565b9150612dd582846128c4565b915081905092915050565b6000602082019050612df56000830184612834565b92915050565b6000608082019050612e106000830187612834565b612e1d6020830186612834565b612e2a6040830185612c53565b8181036060830152612e3c8184612852565b905095945050505050565b6000604082019050612e5c6000830185612834565b612e696020830184612c53565b9392505050565b6000602082019050612e856000830184612843565b92915050565b60006020820190508181036000830152612ea5818461288b565b905092915050565b60006040820190508181036000830152612ec7818561288b565b9050612ed66020830184612c53565b9392505050565b60006060820190508181036000830152612ef7818661288b565b9050612f066020830185612c53565b612f136040830184612834565b949350505050565b60006020820190508181036000830152612f3481612974565b9050919050565b60006020820190508181036000830152612f5481612997565b9050919050565b60006020820190508181036000830152612f74816129ba565b9050919050565b60006020820190508181036000830152612f9481612a23565b9050919050565b60006020820190508181036000830152612fb481612a46565b9050919050565b60006020820190508181036000830152612fd481612aaf565b9050919050565b60006020820190508181036000830152612ff481612ad2565b9050919050565b6000602082019050818103600083015261301481612b18565b9050919050565b6000602082019050818103600083015261303481612b3b565b9050919050565b6000602082019050818103600083015261305481612b81565b9050919050565b6000602082019050818103600083015261307481612ba4565b9050919050565b6000602082019050818103600083015261309481612c0d565b9050919050565b60006020820190506130b06000830184612c53565b92915050565b60006130c06130d1565b90506130cc8282613614565b919050565b6000604051905090565b600067ffffffffffffffff8211156130f6576130f561374c565b5b6130ff8261377b565b9050602081019050919050565b60008190508160005260206000209050919050565b600081519050919050565b600081519050919050565b600082825260208201905092915050565b600082825260208201905092915050565b600081905092915050565b600061316f8261356c565b915061317a8361356c565b9250817f7fffffffffffffffffffffffffffffffffffffffffffffffffffffffffffffff038313600083121516156131b5576131b46136bf565b5b817f80000000000000000000000000000000000000000000000000000000000000000383126000831216156131ed576131ec6136bf565b5b828201905092915050565b600061320382613596565b915061320e83613596565b9250827fffffffffffffffffffffffffffffffffffffffffffffffffffffffffffffffff03821115613243576132426136bf565b5b828201905092915050565b60006132598261356c565b91506132648361356c565b925082613274576132736136ee565b5b600160000383147f8000000000000000000000000000000000000000000000000000000000000000831416156132ad576132ac6136bf565b5b828205905092915050565b60006132c382613596565b91506132ce83613596565b9250826132de576132dd6136ee565b5b828204905092915050565b60006132f48261356c565b91506132ff8361356c565b9250827f7fffffffffffffffffffffffffffffffffffffffffffffffffffffffffffffff048211600084136000841316161561333e5761333d6136bf565b5b817f8000000000000000000000000000000000000000000000000000000000000000058312600084126000841316161561337b5761337a6136bf565b5b827f800000000000000000000000000000000000000000000000000000000000000005821260008413600084121616156133b8576133b76136bf565b5b827f7fffffffffffffffffffffffffffffffffffffffffffffffffffffffffffffff05821260008412600084121616156133f5576133f46136bf565b5b828202905092915050565b600061340b82613596565b915061341683613596565b9250817fffffffffffffffffffffffffffffffffffffffffffffffffffffffffffffffff048311821515161561344f5761344e6136bf565b5b828202905092915050565b60006134658261356c565b91506134708361356c565b9250827f8000000000000000000000000000000000000000000000000000000000000000018212600084121516156134ab576134aa6136bf565b5b827f7fffffffffffffffffffffffffffffffffffffffffffffffffffffffffffffff0182136000841216156134e3576134e26136bf565b5b828203905092915050565b60006134f982613596565b915061350483613596565b925082821015613517576135166136bf565b5b828203905092915050565b600061352d82613576565b9050919050565b60008115159050919050565b60007fffffffff0000000000000000000000000000000000000000000000000000000082169050919050565b6000819050919050565b600073ffffffffffffffffffffffffffffffffffffffff82169050919050565b6000819050919050565b82818337600083830152505050565b60005b838110156135cd5780820151818401526020810190506135b2565b838111156135dc576000848401525b50505050565b600060028204905060018216806135fa57607f821691505b6020821081141561360e5761360d61371d565b5b50919050565b61361d8261377b565b810181811067ffffffffffffffff8211171561363c5761363b61374c565b5b80604052505050565b600061365082613596565b91507fffffffffffffffffffffffffffffffffffffffffffffffffffffffffffffffff821415613683576136826136bf565b5b600182019050919050565b600061369982613596565b91506136a483613596565b9250826136b4576136b36136ee565b5b828206905092915050565b7f4e487b7100000000000000000000000000000000000000000000000000000000600052601160045260246000fd5b7f4e487b7100000000000000000000000000000000000000000000000000000000600052601260045260246000fd5b7f4e487b7100000000000000000000000000000000000000000000000000000000600052602260045260246000fd5b7f4e487b7100000000000000000000000000000000000000000000000000000000600052604160045260246000fd5b6000601f19601f8301169050919050565b7f4552433732313a207472616e7366657220746f206e6f6e20455243373231526560008201527f63656976657220696d706c656d656e7465720000000000000000000000000000602082015250565b7f4552433732313a207472616e736665722066726f6d20696e636f72726563742060008201527f6f776e6572000000000000000000000000000000000000000000000000000000602082015250565b7f4552433732313a20746f6b656e20616c7265616479206d696e74656400000000600082015250565b7f54484952445f574f524400000000000000000000000000000000000000000000600082015250565b7f222c20226465736372697074696f6e223a202250726f6f66206f66204174746560008201527f6e64616e636520617420776562332d6d656574696e67222c2022696d6167652260208201527f3a2022646174613a696d6167652f7376672b786d6c3b6261736536342c000000604082015250565b7f4552433732313a207472616e7366657220746f20746865207a65726f2061646460008201527f7265737300000000000000000000000000000000000000000000000000000000602082015250565b7f4552433732313a20617070726f766520746f2063616c6c657200000000000000600082015250565b7f5345434f4e445f574f5244000000000000000000000000000000000000000000600082015250565b7f3c2f746578743e3c2f7376673e00000000000000000000000000000000000000600082015250565b7f4552433732313a2061646472657373207a65726f206973206e6f74206120766160008201527f6c6964206f776e65720000000000000000000000000000000000000000000000602082015250565b7f45524337323155524953746f726167653a2055524920736574206f66206e6f6e60008201527f6578697374656e7420746f6b656e000000000000000000000000000000000000602082015250565b7f227d000000000000000000000000000000000000000000000000000000000000600082015250565b7f4552433732313a20617070726f76652063616c6c6572206973206e6f7420746f60008201527f6b656e206f776e6572206e6f7220617070726f76656420666f7220616c6c0000602082015250565b7f4552433732313a206d696e7420746f20746865207a65726f2061646472657373600082015250565b7f7b226e616d65223a202200000000000000000000000000000000000000000000600082015250565b7f4552433732313a20696e76616c696420746f6b656e2049440000000000000000600082015250565b7f4552433732313a20617070726f76616c20746f2063757272656e74206f776e6560008201527f7200000000000000000000000000000000000000000000000000000000000000602082015250565b7f46495253545f574f524400000000000000000000000000000000000000000000600082015250565b7f646174613a6170706c69636174696f6e2f6a736f6e3b6261736536342c000000600082015250565b7f4552433732313a2063616c6c6572206973206e6f7420746f6b656e206f776e6560008201527f72206e6f7220617070726f766564000000000000000000000000000000000000602082015250565b7f2f00000000000000000000000000000000000000000000000000000000000000600082015250565b613c6e81613522565b8114613c7957600080fd5b50565b613c8581613534565b8114613c9057600080fd5b50565b613c9c81613540565b8114613ca757600080fd5b50565b613cb381613596565b8114613cbe57600080fd5b5056fe416e204e465420772f20494420257320686173206265656e206d696e74656420746f2025734142434445464748494a4b4c4d4e4f505152535455565758595a6162636465666768696a6b6c6d6e6f707172737475767778797a303132333435363738392b2fa26469706673582212207ec1705da2acf8cecc541fa6ba054798c35778d45eaa79df082324ac797e4f2064736f6c634300080400333c73766720786d6c6e733d27687474703a2f2f7777772e77332e6f72672f323030302f73766727207072657365727665417370656374526174696f3d27784d696e594d696e206d656574272076696577426f783d273020302033353020333530273e3c7374796c653e2e62617365207b2066696c6c3a2077686974653b20666f6e742d66616d696c793a2073657269663b20666f6e742d73697a653a20323470783b207d3c2f7374796c653e3c726563742077696474683d273130302527206865696768743d2731303025272066696c6c3d27626c61636b27202f3e3c7465787420783d273530252720793d273530252720636c6173733d27626173652720646f6d696e616e742d626173656c696e653d276d6964646c652720746578742d616e63686f723d276d6964646c65273e",
  "linkReferences": {},
  "deployedLinkReferences": {}
}